:020000040800F2
:1000000000500020FD1B0008F9190008011A000823
:10001000091A0008111A0008191A00080000000047
:10002000000000000000000000000000211A00088D
:100030002D1A000800000000391A0008451A0008AF
:10004000451C0008451C0008451C0008451C00080C
:10005000451C0008451C0008451C0008451C0008FC
:10006000511A00085F1A0008451C0008451C0008CA
:10007000451C0008451C0008451C0008451C0008DC
:10008000451C0008451C0008451C0008451C0008CC
:10009000451C0008451C0008451C0008451C0008BC
:1000A000451C0008451C0008451C0008451C0008AC
:1000B000451C0008451C0008451C0008451C00089C
:1000C000451C0008451C0008451C0008451C00088C
:1000D000451C0008451C0008451C0008451C00087C
:1000E000451C0008451C0008451C000800000000D5
:1000F0000000000000000000000000000000000000
:0C01000000000000000000005FF808F1A3
:1001100010B5054C237833B9044B13B10448AFF341
:1001200000800123237010BDD801002000000000D2
:100130003487000808B5034B1BB103490348AFF3EC
:10014000008008BD00000000DC01002034870008AA
:10015000034613F8012B002AFBD1181A0138704707
:1001600081F0004102E000BF83F0004330B54FEA68
:1001700041044FEA430594EA050F08BF90EA020FD5
:100180001FBF54EA000C55EA020C7FEA645C7FEA68
:10019000655C00F0E2804FEA5454D4EB5555B8BF8B
:1001A0006D420CDD2C4480EA020281EA030382EAFC
:1001B000000083EA010180EA020281EA0303362D8E
:1001C00088BF30BD11F0004F4FEA01314FF4801C61
:1001D0004CEA113102D0404261EB410113F0004F73
:1001E0004FEA03334CEA133302D0524263EB43032A
:1001F00094EA050F00F0A780A4F10104D5F1200EC8
:100200000DDB02FA0EFC22FA05F2801841F1000122
:1002100003FA0EF2801843FA05F359410EE0A5F1F6
:1002200020050EF1200E012A03FA0EFC28BF4CF027
:10023000020C43FA05F3C01851EBE37101F00045DD
:1002400007D54FF0000EDCF1000C7EEB00006EEBEA
:100250000101B1F5801F1BD3B1F5001F0CD3490874
:100260005FEA30004FEA3C0C04F101044FEA4452CB
:1002700012F5800F80F09A80BCF1004F08BF5FEA52
:10028000500C50F1000041EB045141EA050130BD32
:100290005FEA4C0C404141EB0101013C28BFB1F544
:1002A000801FE9D291F0000F04BF01460020B1FA8F
:1002B00081F308BF2033A3F10B03B3F120020CDA62
:1002C0000C3208DD02F1140CC2F10C0201FA0CF040
:1002D00021FA02F10CE002F11402D8BFC2F1200CA5
:1002E00001FA02F120FA0CFCDCBF41EA0C0190405B
:1002F000E41AA2BF01EB0451294330BD6FEA0404A4
:100300001F3C1CDA0C340EDC04F11404C4F120028E
:1003100020FA04F001FA02F340EA030021FA04F3A0
:1003200045EA030130BDC4F10C04C4F1200220FAF7
:1003300002F001FA04F340EA0300294630BD21FA35
:1003400004F0294630BD94F0000F83F4801306BFFB
:1003500081F480110134013D4EE77FEA645C18BFEF
:100360007FEA655C29D094EA050F08BF90EA020F86
:1003700005D054EA000C04BF1946104630BD91EA7E
:10038000030F1EBF0021002030BD5FEA545C05D181
:100390004000494128BF41F0004130BD14F58004C0
:1003A0003CBF01F5801130BD01F0004545F0FE4134
:1003B00041F470014FF0000030BD7FEA645C1ABF69
:1003C000194610467FEA655C1CBF0B46024650EAA0
:1003D000013406BF52EA033591EA030F41F40021CC
:1003E00030BD00BF90F0000F04BF0021704730B552
:1003F0004FF4806404F132044FF000054FF0000127
:1004000050E700BF90F0000F04BF0021704730B5E7
:100410004FF4806404F1320410F0004548BF4042BC
:100420004FF000013EE700BF42004FEAE2014FEA11
:1004300031014FEA02701FBF12F07F4393F07F4FEC
:1004400081F06051704732F07F4208BF704793F0EF
:100450007F4F04BF41F40021704730B54FF4607402
:1004600001F0004521F000411CE700BF50EA010205
:1004700008BF704730B54FF000050AE050EA0102AE
:1004800008BF704730B511F0004502D5404261EB1E
:1004900041014FF4806404F132045FEA915C3FF45F
:1004A000D8AE4FF003025FEADC0C18BF03325FEAFC
:1004B000DC0C18BF033202EBDC02C2F1200300FAAD
:1004C00003FC20FA02F001FA03FE40EA0E0021FAD2
:1004D00002F11444BDE600BF70B54FF0FF0C4CF4C0
:1004E000E06C1CEA11541DBF1CEA135594EA0C0F72
:1004F00095EA0C0F00F0DEF82C4481EA030621EAAD
:100500004C5123EA4C5350EA013518BF52EA0335E7
:1005100041F4801143F4801338D0A0FB02CE4FF099
:100520000005E1FB02E506F00042E0FB03E54FF0C9
:100530000006E1FB03569CF0000F18BF4EF0010EC1
:10054000A4F1FF04B6F5007F64F5407404D25FEABD
:100550004E0E6D4146EB060642EAC62141EA555170
:100560004FEAC52040EA5E504FEACE2EB4F1FD0CB2
:1005700088BFBCF5E06F1ED8BEF1004F08BF5FEA30
:10058000500E50F1000041EB045170BD06F00046E2
:1005900046EA010140EA020081EA0301B4EB5C048F
:1005A000C2BFD4EB0C0541EA045170BD41F4801187
:1005B0004FF0000E013C00F3AB8014F1360FDEBFAC
:1005C000002001F0004170BDC4F10004203C35DA88
:1005D0000C341BDC04F11404C4F1200500FA05F30B
:1005E00020FA04F001FA05F240EA020001F00042AC
:1005F00021F0004110EBD37021FA04F642EB060122
:100600005EEA430E08BF20EAD37070BDC4F10C044B
:10061000C4F1200500FA04F320FA05F001FA04F20F
:1006200040EA020001F0004110EBD37041F10001FB
:100630005EEA430E08BF20EAD37070BDC4F1200506
:1006400000FA05F24EEA020E20FA04F301FA05F26E
:1006500043EA020321FA04F001F0004121FA04F216
:1006600020EA020000EBD3705EEA430E08BF20EAE6
:10067000D37070BD94F0000F0FD101F00046400020
:1006800041EB010111F4801F08BF013CF7D041EAA2
:10069000060195F0000F18BF704703F000465200A6
:1006A00043EB030313F4801F08BF013DF7D043EA77
:1006B0000603704794EA0C0F0CEA135518BF95EA2D
:1006C0000C0F0CD050EA410618BF52EA4306D1D1B4
:1006D00081EA030101F000414FF0000070BD50EAD3
:1006E000410606BF1046194652EA430619D094EA5D
:1006F0000C0F02D150EA013613D195EA0C0F05D147
:1007000052EA03361CBF104619460AD181EA03019A
:1007100001F0004141F0FE4141F470014FF0000052
:1007200070BD41F0FE4141F4780170BD70B54FF0ED
:10073000FF0C4CF4E06C1CEA11541DBF1CEA13556D
:1007400094EA0C0F95EA0C0F00F0A7F8A4EB05044F
:1007500081EA030E52EA03354FEA013100F0888046
:100760004FEA03334FF0805545EA131343EA12630F
:100770004FEA022245EA111545EA10654FEA0026C4
:100780000EF000419D4208BF964244F1FD0404F57D
:10079000407402D25B084FEA3202B61A65EB0305D9
:1007A0005B084FEA32024FF480104FF4002CB6EB96
:1007B000020E75EB030E22BFB61A754640EA0C0016
:1007C0005B084FEA3202B6EB020E75EB030E22BF56
:1007D000B61A754640EA5C005B084FEA3202B6EB97
:1007E000020E75EB030E22BFB61A754640EA9C0056
:1007F0005B084FEA3202B6EB020E75EB030E22BF26
:10080000B61A754640EADC0055EA060E18D04FEAE3
:10081000051545EA16754FEA06164FEAC30343EA83
:1008200052734FEAC2025FEA1C1CC0D111F4801F50
:100830000BD141EA00014FF000004FF0004CB6E749
:1008400011F4801F04BF01430020B4F1FD0C88BFE8
:10085000BCF5E06F3FF6AFAEB5EB030C04BFB6EBF3
:10086000020C5FEA500C50F1000041EB045170BDE6
:100870000EF0004E4EEA113114EB5C04C2BFD4EB13
:100880000C0541EA045170BD41F480114FF0000E97
:10089000013C90E645EA060E8DE60CEA135594EA13
:1008A0000C0F08BF95EA0C0F3FF43BAF94EA0C0F16
:1008B0000AD150EA01347FF434AF95EA0C0F7FF48B
:1008C00025AF104619462CE795EA0C0F06D152EADF
:1008D00003353FF4FDAE1046194622E750EA4106C3
:1008E00018BF52EA43067FF4C5AE50EA41047FF4D4
:1008F0000DAF52EA43057FF4EBAE12E74FF0FF3C39
:1009000006E000BF4FF0010C02E000BF4FF0010C09
:100910004DF804CD4FEA410C7FEA6C5C4FEA430C82
:1009200018BF7FEA6C5C1BD001B050EA410C0CBFD1
:1009300052EA430C91EA030F02BF90EA020F002033
:10094000704710F1000F91EA030F58BF994208BF9A
:1009500090422CBFD8176FEAE37040F00100704757
:100960004FEA410C7FEA6C5C02D150EA013C07D1AE
:100970004FEA430C7FEA6C5CD6D152EA033CD3D0F9
:100980005DF8040B704700BF8446104662468C46F3
:100990001946634600E000BF01B5FFF7B7FF002826
:1009A00048BF10F1000F01BD4DF808EDFFF7F4FF4F
:1009B0000CBF012000205DF808FB00BF4DF808EDDA
:1009C000FFF7EAFF34BF012000205DF808FB00BFFD
:1009D0004DF808EDFFF7E0FF94BF012000205DF81F
:1009E00008FB00BF4DF808EDFFF7CEFF94BF0120D4
:1009F00000205DF808FB00BF4DF808EDFFF7C4FFCD
:100A000034BF012000205DF808FB00BF4FEA410C15
:100A10007FEA6C5C02D150EA013C0AD14FEA430CF8
:100A20007FEA6C5C02D152EA033C02D14FF0000035
:100A300070474FF0010070474FEA410212F5001273
:100A400015D211D56FF47873B3EB625212D94FEA15
:100A5000C12343F0004343EA505311F0004F23FAFF
:100A600002F018BF404270474FF00000704750EA54
:100A7000013005D111F0004008BF6FF00040704711
:100A80004FF00000704700BF4A0011D212F500126B
:100A900011D20DD56FF47873B3EB62520ED44FEAD6
:100AA000C12343F0004343EA505323FA02F0704756
:100AB0004FF00000704750EA013002D14FF0FF3094
:100AC00070474FF0000070474FEA4102B2F1E04337
:100AD00024BFB3F5001CDCF1FE5C0DD901F0004C25
:100AE0004FEAC0024CEA5070B2F1004F40EB830075
:100AF00008BF20F00100704711F0804F21D113F1A1
:100B00003872BCBF01F00040704741F480114FEAD9
:100B10005252C2F11802C2F1200C10FA0CF320FA62
:100B200002F018BF40F001004FEAC1234FEAD3237F
:100B300003FA0CFC40EA0C0023FA02F34FEA4303E9
:100B4000CCE77FEA625307D150EA01331EBF4FF072
:100B5000FE4040F44000704701F0004040F0FE408D
:100B600040F40000704700BF80F0004002E000BF8A
:100B700081F0004142001FBF5FEA410392EA030F88
:100B80007FEA226C7FEA236C6AD04FEA1262D2EBD2
:100B90001363C1BFD218414048404140B8BF5B42D7
:100BA000192B88BF704710F0004F40F4000020F070
:100BB0007F4018BF404211F0004F41F4000121F086
:100BC0007F4118BF494292EA030F3FD0A2F10102D0
:100BD00041FA03FC10EB0C00C3F1200301FA03F10E
:100BE00000F0004302D5494260EB4000B0F5000F31
:100BF00013D3B0F1807F06D340084FEA310102F1F0
:100C00000102FE2A51D2B1F1004F40EBC25008BFA1
:100C100020F0010040EA03007047490040EB00006B
:100C2000013A28BFB0F5000FEDD2B0FA80FCACF16C
:100C3000080CB2EB0C0200FA0CF0AABF00EBC25099
:100C400052421843BCBFD0401843704792F0000F87
:100C500081F4000106BF80F400000132013BB5E7DA
:100C60004FEA41037FEA226C18BF7FEA236C21D050
:100C700092EA030F04D092F0000F08BF08467047B5
:100C800090EA010F1CBF0020704712F07F4F04D183
:100C9000400028BF40F00040704712F100723CBF96
:100CA00000F50000704700F0004343F0FE4040F4C0
:100CB000000070477FEA226216BF08467FEA23637E
:100CC0000146420206BF5FEA412390EA010F40F469
:100CD000800070474FF0000304E000BF10F00043B5
:100CE00048BF40425FEA000C08BF704743F096439C
:100CF00001464FF000001CE050EA010208BF7047B7
:100D00004FF000030AE000BF50EA010208BF70473D
:100D100011F0004302D5404261EB41015FEA010C52
:100D200002BF84460146002043F0B64308BFA3F14A
:100D30008053A3F50003BCFA8CF2083AA3EBC2532C
:100D400010DB01FA02FC634400FA02FCC2F120024B
:100D5000BCF1004F20FA02F243EB020008BF20F082
:100D60000100704702F1200201FA02FCC2F12002E8
:100D700050EA4C0021FA02F243EB020008BF20EADD
:100D8000DC7070474FF0FF3C06E000BF4FF0010CF5
:100D900002E000BF4FF0010C4DF804CD4FEA4002D5
:100DA0004FEA41037FEA226C18BF7FEA236C11D01F
:100DB00001B052EA530C18BF90EA010F58BFB2EBD2
:100DC000030088BFC81738BF6FEAE17018BF40F052
:100DD000010070477FEA226C02D15FEA402C05D106
:100DE0007FEA236CE4D15FEA412CE1D05DF8040B8B
:100DF000704700BF844608466146FFE70FB5FFF71E
:100E0000C9FF002848BF10F1000F0FBD4DF808EDD5
:100E1000FFF7F4FF0CBF012000205DF808FB00BFC6
:100E20004DF808EDFFF7EAFF34BF012000205DF820
:100E300008FB00BF4DF808EDFFF7E0FF94BF01206D
:100E400000205DF808FB00BF4DF808EDFFF7D2FF6A
:100E500094BF012000205DF808FB00BF4DF808EDAD
:100E6000FFF7C8FF34BF012000205DF808FB00BF7A
:100E700038B50022002304460D46FFF79FFD28B930
:100E800020462946BDE8384000F00AB8204605F162
:100E9000004100F005F8404261EB410138BD00BF60
:100EA000D0B500220B4B06460F46FFF715FBFFF7A8
:100EB000EBFD0446FFF796FA0022074BFFF70CFB09
:100EC00002460B4630463946FFF74EF9FFF7DCFD88
:100ED0002146D0BD0000F03D0000F04180B586B055
:100EE00002AF0346FB71FB7923F00F03FB73FB7921
:100EF0001B01BB73FB7B43F00C03DBB23B72FB7B40
:100F000043F00803DBB27B72BB7B43F00C03DBB224
:100F1000BB72BB7B43F00803DBB2FB7207F1080234
:100F20006423009304234E21034801F031FB00BFEA
:100F30001037BD4680BD00BFF401002080B586B0EB
:100F400002AF0346FB71FB7923F00F03FB73FB79C0
:100F50001B01BB73FB7B43F00D03DBB23B72FB7BDE
:100F600043F00903DBB27B72BB7B43F00D03DBB2C2
:100F7000BB72BB7B43F00903DBB2FB7207F10802D3
:100F80006423009304234E21034801F001FB00BFBA
:100F90001037BD4680BD00BFF401002080B500AF12
:100FA0000120FFF79BFF022000F0B0FE00BF80BDD4
:100FB00080B584B000AF786039607B68002B02D1C7
:100FC0003B68803301E03B68C033FB60FB68DBB209
:100FD0001846FFF783FF00BF1037BD4680BD80B5C0
:100FE00082B000AF786006E07B685A1C7A601B789C
:100FF0001846FFF7A3FF7B681B78002BF4D100BFD6
:1010000000BF0837BD4680BD80B500AF322000F07C
:101010007DFE3020FFF762FF052000F077FE3020D4
:10102000FFF75CFF012000F071FE3020FFF756FF54
:101030000A2000F06BFE2020FFF750FF0A2000F08E
:1010400065FE2820FFF74AFF0820FFF747FF012031
:10105000FFF744FF022000F059FE0620FFF73EFF95
:101060000C20FFF73BFF00BF80BD000080B400AF45
:10107000094BDB68084A43F08073D360074B0022BA
:101080005A60064B1B68054A43F00103136000BF1A
:10109000BD4680BC704700BFF0ED00E0001000E0EE
:1010A00080B485B000AF78600D4B5B68FB600D4B82
:1010B0001B680D4AA2FB03239A0C7B6802FB03F317
:1010C000BB6000BF064B5A68FB68D31ABA689A42E5
:1010D000F8D800BF00BF1437BD4680BC704700BFC2
:1010E000001000E00400002083DE1B4380B584B0C4
:1010F00000AF3B4600221A605A609A60DA604FF4F3
:1011000080733B6011237B600223FB603B461946E2
:10111000034800F02DFF00BF1037BD4680BD00BF63
:101120000008014080B584B000AF3B4600221A6041
:101130005A609A60DA604FF480733B6000237B60F2
:101140000023BB603B461946034800F011FF00BF77
:101150001037BD4680BD00BF0008014080B582B099
:1011600000AFFFF7C3FF00224FF48071104801F079
:101170009AF84FF4F070FFF793FFFFF7D3FF462084
:10118000FFF78EFF4FF48071094801F075F80346B0
:10119000FB714FF4CD70FFF783FFFB79002B0CBF81
:1011A00001230023DBB218460837BD4680BD00BFCF
:1011B0000008014080B582B000AF0346FB71FFF725
:1011C00095FF00224FF480710B4801F06CF802206B
:1011D000FFF766FFFB79002B05D001224FF48071E9
:1011E000054801F060F83C20FFF75AFFFFF79AFF2F
:1011F00000BF0837BD4680BD0008014080B582B001
:1012000000AFFFF773FF00224FF480710C4801F02C
:101210004AF80220FFF744FFFFF784FF0A20FFF798
:101220003FFF4FF48071064801F026F80346FB713A
:101230003220FFF735FFFB7918460837BD4680BDE1
:101240000008014080B584B000AF0346FB71002365
:10125000FB730CE0FB7903F00103DBB21846FFF7E8
:10126000A9FFFB795B08FB71FB7B0133FB73FB7B05
:10127000072BEFD900BF00BF1037BD4680BD80B53A
:1012800082B000AF0023FB710023BB710EE0FB793D
:101290005B08FB71FFF7B2FF0346002B03D0FB791D
:1012A00063F07F03FB71BB790133BB71BB79072B03
:1012B000EDD9FB7918460837BD4680BD80B582B0B0
:1012C00000AFFFF74BFF0346002B01D11F4B38E067
:1012D000CC20FFF7B7FF4420FFF7B4FF00BFFFF7B4
:1012E0008DFF0346002BFAD0FFF738FF0346002B93
:1012F00001D1164B25E0CC20FFF7A4FFBE20FFF75D
:10130000A1FFFFF7BCFF0346FB71FFF7B8FF0346E1
:10131000BB71BB791B021AB2FB791BB21343BB80B2
:10132000B7F904301846FFF76DF84FF00002084B8C
:10133000FFF7FCF902460B4610461946FFF7C4FBBF
:10134000034618460837BD4680BD00BF00007AC47A
:101350000000304080B586B000AFFFF7AFFF786186
:10136000FFF71CFE18497869FFF750FD0346002B74
:1013700009D17869FFF758F802460B46381D134922
:1013800003F0ACFD04E03B1D1149184603F0A6FD37
:1013900000210020FFF70CFE3B1D1846FFF71FFE43
:1013A0000C4B1A683B1D0C49184603F097FD0021B1
:1013B0000120FFF7FDFD3B1D1846FFF710FE00BFA3
:1013C0001837BD4680BD00BF00007AC450870008B2
:1013D00060870008000000206887000880B582B0A0
:1013E00000AF0346FB80322000F090FC04210E4841
:1013F00000F042FF0346002B04D10C4B1B68013365
:101400000A4A13600821084800F036FF0346002B03
:1014100004D1064B1B68013B044A1360FFF79AFF97
:1014200000BF0837BD4680BD000801400000002015
:1014300080B582B000AF78601E4B1B680F33184632
:10144000FFF74CFC034619467868FFF707FD034693
:10145000002B0AD0184B1B6840F2E7325A63002277
:101460000221164800F01FFF20E0124B1B681846AF
:10147000FFF734FC034619467868FFF7EFFC034694
:10148000002B0AD00C4B1B684FF4C8725A63002221
:1014900002210A4800F007FF08E0074B1B68002202
:1014A0005A6301220221054800F0FDFE00BF083703
:1014B000BD4680BD000000209002002000080140D1
:1014C00080B582B000AF00F0BFFB00F02FF800F055
:1014D00049F900F071F800F09DF800F0EBF80021F8
:1014E0000F4802F093F80F4801F0F6FFFFF78CFD6C
:1014F0000D48FFF774FD4FF4FA6000F007FCFFF7AA
:101500004DFDFFF7B3FDFFF7D9FE7860FFF722FF2F
:101510007868FFF78DFFC82000F0F8FB00BFF2E706
:1015200090020020480200207487000880B590B027
:1015300000AF07F1180328220021184603F031FDFF
:101540003B1D00221A605A609A60DA601A6101231A
:10155000BB614FF48033FB6100233B620123BB621C
:1015600002237B634FF48033BB634FF4E013FB63D0
:1015700007F11803184601F063FB0346002B01D066
:1015800000F05AF90F237B600223BB600023FB604D
:101590004FF480633B6100237B613B1D02211846B1
:1015A00001F0D0FD0346002B01D000F045F900BF4B
:1015B0004037BD4680BD000080B500AF124B134AD6
:1015C0001A60114B124A5A600F4B00229A600E4B60
:1015D0000022DA600C4B4FF480421A610A4B002261
:1015E0005A61094B00229A61074B0022DA61064BCF
:1015F00000221A62044800F087FE0346002B01D047
:1016000000F01AF900BF80BDF40100200054004032
:10161000A086010080B586B000AF07F10803002264
:101620001A605A609A60DA603B4600221A605A607B
:101630001E4B1F4A1A601D4B47225A601B4B00224B
:101640009A601A4B40F2E732DA60184B00221A61B6
:10165000164B00225A61154B00229A61134801F083
:10166000EBFE0346002B01D000F0E6F84FF4805368
:10167000BB6007F1080319460C4802F02BF903463A
:10168000002B01D000F0D8F800233B6000237B60E2
:101690003B461946054802F095FC0346002B01D055
:1016A00000F0CAF800BF1837BD4680BD48020020D0
:1016B000002C014080B58AB000AF07F12003002262
:1016C0001A605A603B1D00221A605A609A60DA6004
:1016D0001A615A619A61224B4FF080421A60204B86
:1016E00047225A601E4B00229A601D4B40F2E7329F
:1016F000DA601B4B00221A61194B00229A611848CC
:1017000001F034FF0346002B01D000F095F80023D0
:101710003B6200237B6207F120031946104802F068
:1017200051FC0346002B01D000F086F860237B605B
:101730000023BB600023FB6000237B613B1D002274
:101740001946074802F004F80346002B01D000F0C8
:1017500073F8034800F020F900BF2837BD4680BD6C
:101760009002002080B588B000AF07F1100300227E
:101770001A605A609A60DA602C4B9B692B4A43F0DE
:1017800020039361294B9B6903F02003FB60FB68F6
:10179000264B9B69254A43F004039361234B9B69C5
:1017A00003F00403BB60BB68204B9B691F4A43F0F6
:1017B000080393611D4B9B6903F008037B607B6802
:1017C00000224FF481711A4800F06DFD4FF48173CF
:1017D0003B6101237B610023BB610223FB6107F1B5
:1017E00010031946124800F0C3FB0C233B61114B58
:1017F0007B610023BB6107F1100319460C4800F020
:10180000B7FB00220021082000F07BFB082000F03D
:1018100094FB00220021092000F073FB092000F056
:101820008CFB00BF2037BD4680BD00BF00100240CA
:10183000000801400000111080B400AF72B600BF74
:1018400000BFFDE780B485B000AF154B9B69144A1B
:1018500043F001039361124B9B6903F00103BB60EA
:10186000BB680F4BDB690E4A43F08053D3610C4BCE
:10187000DB6903F080537B607B680A4B5B68FB602D
:10188000FB6823F0E063FB60FB6843F00073FB60E0
:10189000044AFB68536000BF1437BD4680BC7047E4
:1018A000001002400000014080B588B000AF7860B1
:1018B00007F1100300221A605A609A60DA607B68B0
:1018C0001B68154A934223D1144B9B69134A43F07A
:1018D00008039361114B9B6903F00803FB60FB68ED
:1018E000C0233B6112237B610323FB6107F11003DB
:1018F00019460B4800F03CFB084BDB69074A43F4F0
:101900000013D361054BDB6903F40013BB60BB68B4
:1019100000BF2037BD4680BD00540040001002408B
:10192000000C014080B485B000AF78607B681B6814
:10193000094A93420BD1094B9B69084A43F400635F
:101940009361064B9B6903F40063FB60FB6800BF77
:101950001437BD4680BC7047002C01400010024087
:1019600080B485B000AF78607B681B68B3F1804FAE
:101970000BD1084BDB69074A43F00103D361054BE8
:10198000DB6903F00103FB60FB6800BF1437BD4651
:1019900080BC70470010024080B588B000AF78600E
:1019A00007F1100300221A605A609A60DA607B68BF
:1019B0001B68B3F1804F17D10D4B9B690C4A43F064
:1019C000040393610A4B9B6903F00403FB60FB680B
:1019D00001233B6102237B610223FB6107F11003BA
:1019E0001946044800F0C4FA00BF2037BD4680BD48
:1019F000001002400008014080B400AF00BFFDE7C6
:101A000080B400AF00BFFDE780B400AF00BFFDE7CA
:101A100080B400AF00BFFDE780B400AF00BFFDE7BA
:101A200080B400AF00BFBD4680BC704780B400AF3B
:101A300000BFBD4680BC704780B400AF00BFBD464C
:101A400080BC704780B500AF00F044F900BF80BD96
:101A500080B500AF042000F03FFC00BF80BD80B522
:101A600000AF082000F038FC00BF80BD80B400AF9C
:101A700001231846BD4680BC704780B582B000AFD8
:101A80007860396003F0E0FA034616221A604FF0DE
:101A9000FF3318460837BD4680BD80B582B000AF21
:101AA00078604FF0FF317868FFF7E7FF00BFFDE790
:101AB00080B586B000AFF860B9607A6000237B61C2
:101AC0000AE0AFF300800146BB685A1CBA60CAB294
:101AD0001A707B6901337B617A697B689A42F0DB1B
:101AE0007B6818461837BD4680BD80B586B000AF0C
:101AF000F860B9607A6000237B6109E0BB685A1C1A
:101B0000BA601B781846AFF300807B6901337B61B4
:101B10007A697B689A42F1DB7B6818461837BD46C4
:101B200080BD80B483B000AF78604FF0FF331846BB
:101B30000C37BD4680BC704780B483B000AF78607E
:101B400039603B684FF400525A60002318460C3746
:101B5000BD4680BC704780B483B000AF786001237D
:101B600018460C37BD4680BC704780B485B000AFC6
:101B7000F860B9607A60002318461437BD4680BC0F
:101B80007047000080B586B000AF7860144A154BEE
:101B9000D31A7B617B693B61134B1B68002B02D11D
:101BA000114B124A1A60104B1A687B6813443A6949
:101BB0009A4207D203F048FA03460C221A604FF00B
:101BC000FF3309E0084B1B68FB60074B1A687B6812
:101BD0001344054A1360FB6818461837BD4680BD9C
:101BE0000050002000040000D80200203004002033
:101BF00080B400AF00BFBD4680BC7047FFF7F8FF60
:101C00000B480C490C4A002302E0D458C45004335A
:101C1000C4188C42F9D3094A094C002301E013602F
:101C20000432A242FBD303F015FAFFF749FC7047D8
:101C300000000020D8010020F08B0008D80100200F
:101C40002C040020FEE7000080B500AF084B1B68A5
:101C5000074A43F010031360032000F047F90F20F8
:101C600000F008F8FFF7EEFD0023184680BD00BF26
:101C70000020024080B582B000AF7860124B1A6835
:101C8000124B1B7819464FF47A73B3FBF1F3B2FB96
:101C9000F3F3184600F05FF90346002B01D001234F
:101CA0000EE07B680F2B0AD8002279684FF0FF30D6
:101CB00000F027F9064A7B681360002300E0012347
:101CC00018460837BD4680BD040000200C000020E7
:101CD0000800002080B400AF054B1B781A46054B66
:101CE0001B681344034A136000BFBD4680BC7047A5
:101CF0000C000020DC02002080B400AF024B1B6807
:101D00001846BD4680BC7047DC02002080B584B018
:101D100000AF7860FFF7F0FFB8607B68FB60FB689E
:101D2000B3F1FF3F05D00A4B1B781A46FB681344FA
:101D3000FB6000BFFFF7E0FF0246BB68D31AFA68FA
:101D40009A42F7D800BF00BF1037BD4680BD00BF24
:101D50000C00002080B485B000AF78607B6803F091
:101D60000703FB600C4BDB68BB60BA684FF6FF03F0
:101D70001340BB60FB681A02BB68134343F0BF63A8
:101D800043F40033BB60044ABB68D36000BF143720
:101D9000BD4680BC704700BF00ED00E080B400AFDE
:101DA000044BDB681B0A03F007031846BD4680BCE2
:101DB000704700BF00ED00E080B483B000AF034681
:101DC000FB7197F90730002B0BDBFB7903F01F0247
:101DD000064997F907305B09012000FA02F241F841
:101DE000232000BF0C37BD4680BC704700E100E0F7
:101DF00080B483B000AF03463960FB7197F90730B8
:101E0000002B0ADB3B68DAB20C4997F90730120164
:101E1000D2B20B4483F800230AE03B68DAB20849E7
:101E2000FB7903F00F03043B1201D2B20B441A7684
:101E300000BF0C37BD4680BC704700BF00E100E02A
:101E400000ED00E080B489B000AFF860B9607A605E
:101E5000FB6803F00703FB61FB69C3F10703042B75
:101E600028BF0423BB61FB690433062B02D9FB693D
:101E7000033B00E000237B614FF0FF32BB6902FAB5
:101E800003F3DA43BB681A407B699A404FF0FF3195
:101E90007B6901FA03F3D9437B680B40134318466F
:101EA0002437BD4680BC704780B582B000AF7860F3
:101EB0007B68013BB3F1807F01D301230FE00A4A25
:101EC0007B68013B53600F214FF0FF30FFF790FF1D
:101ED000054B00229A60044B07221A600023184623
:101EE0000837BD4680BD00BF10E000E080B582B07D
:101EF00000AF78607868FFF72DFF00BF0837BD4658
:101F000080BD80B586B000AF0346B9607A60FB73D0
:101F100000237B61FFF742FF78617A68B9687869CE
:101F2000FFF790FF024697F90F3011461846FFF76A
:101F30005FFF00BF1837BD4680BD80B582B000AFDF
:101F40000346FB7197F907301846FFF735FF00BFCE
:101F50000837BD4680BD80B582B000AF7860786834
:101F6000FFF7A2FF034618460837BD4680BD0000B4
:101F700080B48BB000AF7860396000237B620023AF
:101F80003B6269E101227B6A02FA03F3FB613B6871
:101F90001B68FA691340BB61BA69FB699A4240F059
:101FA00058813B685B689A4A93425ED0984A934254
:101FB00075D8984A934258D0964A93426FD8964A19
:101FC000934252D0944A934269D8944A93424CD057
:101FD000924A934263D8924A934246D0904A93429F
:101FE0005DD8122B2AD8122B59D801A252F823F00F
:101FF0006B200008452000085720000899200008A1
:102000009F2000089F2000089F2000089F200008B4
:102010009F2000089F2000089F2000089F200008A4
:102020009F2000089F2000089F2000089F20000894
:102030009F2000084D20000861200008794A934243
:1020400013D02CE03B68DB683B6229E03B68DB682F
:1020500004333B6224E03B68DB6808333B621FE0EB
:102060003B68DB680C333B621AE03B689B68002BE3
:1020700002D104233B6213E03B689B68012B05D12E
:1020800008233B627B68FA691A6109E008233B6216
:102090007B68FA695A6103E000233B6200E000BFFD
:1020A000BB69FF2B01D87B6801E07B6804337B614F
:1020B000BB69FF2B02D87B6A9B0002E07B6A083B6E
:1020C0009B003B617B691A680F213B6901FA03F3AE
:1020D000DB431A40396A3B6901FA03F31A437B690F
:1020E0001A603B685B6803F08053002B00F0B180FE
:1020F0004D4B9B694C4A43F0010393614A4B9B69EA
:1021000003F00103BB60BB68484A7B6A9B0802334B
:1021100052F82330FB607B6A03F003039B000F221D
:1021200002FA03F3DB43FA681340FB607B68404A22
:10213000934213D07B683F4A93420DD07B683E4A5E
:10214000934207D07B683D4A934201D1032306E0C6
:10215000042304E0022302E0012300E000237A6A62
:1021600002F0030292009340FA681343FB602F4988
:102170007B6A9B080233FA6841F823203B685B685E
:1021800003F48013002B06D02D4B9A682C49BB69B1
:1021900013438B6006E02A4B9A68BB69DB432849EE
:1021A00013408B603B685B6803F40013002B06D080
:1021B000234BDA682249BB691343CB6006E0204B0E
:1021C000DA68BB69DB431E491340CB603B685B6840
:1021D00003F40033002B06D0194B5A681849BB6929
:1021E00013434B6006E0164B5A68BB69DB43144946
:1021F00013404B603B685B6803F48033002B21D0B5
:102200000F4B1A680E49BB6913430B6021E000BFF6
:1022100000003210000031100000221000002110D8
:1022200000001210000011100010024000000140D8
:1022300000080140000C0140001001400014014062
:10224000000401400B4B1A68BB69DB43094913408A
:102250000B607B6A01337B623B681A687B6A22FAF7
:1022600003F3002B7FF48EAE00BF00BF2C37BD46BA
:1022700080BC70470004014080B485B000AF786036
:102280000B467B807B689A687B881340002B02D0CA
:102290000123FB7301E00023FB73FB7B184614371B
:1022A000BD4680BC704780B483B000AF78600B46F9
:1022B0007B8013467B707B78002B03D07A887B6809
:1022C0001A6103E07B881A047B681A6100BF0C372F
:1022D000BD4680BC7047000080B582B000AF0346A9
:1022E000FB80084B5A69FB881340002B06D0054A37
:1022F000FB885361FB881846FFF770F800BF08376A
:10230000BD4680BD0004014080B584B000AF786058
:102310007B68002B01D101232BE17B6893F83D30D2
:10232000DBB2002B06D17B68002283F83C20786862
:10233000FFF7BAFA7B68242283F83D207B681B688C
:102340001A687B681B6822F001021A607B681B68B0
:102350001A687B681B6842F400421A607B681B683D
:102360001A687B681B6822F400421A6001F032F898
:10237000F8607B685B68814A934207D8FB68804AB3
:10238000934294BF01230023DBB206E0FB687D4A41
:10239000934294BF01230023DBB2002B01D0012321
:1023A000E7E0FB68784AA2FB03239B0CBB607B68D9
:1023B0001B685B6823F03F017B681B68BA680A43AF
:1023C0005A607B681B681B6A23F03F017B685B686F
:1023D0006A4A934202D8BB68013309E0BB684FF4F4
:1023E000967202FB03F3694AA2FB03239B090133A4
:1023F0007A6812680B4313627B681B68DB6923F4FD
:102400004F4222F0FF027B685B685C498B4219D81F
:10241000FB68591E7B685B685B00B1FBF3F3591CDA
:1024200040F6FC730B40002B0AD0FB68591E7B68FA
:102430005B685B00B1FBF3F30133C3F30B0351E0C3
:1024400004234FE07B689B68002B11D1FB68581E6A
:102450007B6859680B465B000B44B0FBF3F3013318
:10246000C3F30B03002B0CBF01230023DBB212E0EC
:10247000FB68581E7B6859680B469B000B4499000B
:102480000B44B0FBF3F30133C3F30B03002B0CBF7E
:1024900001230023DBB2002B01D0012322E07B6863
:1024A0009B68002B0ED1FB68581E7B6859680B4651
:1024B0005B000B44B0FBF3F30133C3F30B0343F4B2
:1024C00000430FE0FB68581E7B6859680B469B0071
:1024D0000B4499000B44B0FBF3F30133C3F30B033C
:1024E00043F44043796809681343CB617B681B68F8
:1024F0001B6823F0C0017B68DA697B681B6A1A439A
:102500007B681B680A431A607B681B689B6823F41E
:10251000034323F0FF037A6811697A68D268114394
:102520007A6812680B4393607B681B68DB6823F052
:10253000FF017B685A697B689B691A437B681B684B
:102540000A43DA607B681B681A687B681B6842F084
:1025500001021A607B6800221A647B68202283F8DB
:102560003D207B6800221A637B68002283F83E20AE
:10257000002318461037BD4680BD00BFA08601006D
:102580007F841E00FF083D0083DE1B43D34D621095
:1025900080B588B002AFF8607A601A460B467B813E
:1025A00013463B81FFF7A8FB7861FB6893F83D3049
:1025B000DBB2202B40F0E0807B69009319230122DD
:1025C0007049F86800F064F90346002B01D002233B
:1025D000D3E0FB6893F83C30012B01D10223CCE01F
:1025E000FB68012283F83C20FB681B681B6803F032
:1025F0000103012B07D0FB681B681A68FB681B6886
:1026000042F001021A60FB681B681A68FB681B68CD
:1026100022F400621A60FB68212283F83D20FB68E7
:10262000102283F83E20FB6800221A64FB687A6857
:102630005A62FB683A895A85FB685B8D9AB2FB68DF
:102640001A85FB68504ADA6279897B693A6AF868C8
:1026500000F09CF80346002B01D001238DE00023FD
:102660003B61FB681B685B693B61FB681B689B699E
:102670003B613B6966E07A69396AF86800F022FAE2
:102680000346002B0DD0FB681B6C042B07D1FB68A5
:102690001B681A68FB681B6842F400721A60012309
:1026A0006BE0FB685B6A1A78FB681B681A61FB6861
:1026B0005B6A5A1CFB685A62FB685B8D9BB2013BEC
:1026C0009AB2FB685A85FB681B8D013B9AB2FB6886
:1026D0001A85FB681B685B6903F00403042B1BD19C
:1026E000FB681B8D002B17D0FB685B6A1A78FB68B0
:1026F0001B681A61FB685B6A5A1CFB685A62FB68BC
:102700005B8D9BB2013B9AB2FB685A85FB681B8DBF
:10271000013B9AB2FB681A857A69396AF86800F059
:1027200019FA0346002B0DD0FB681B6C042B07D154
:10273000FB681B681A68FB681B6842F400721A6029
:1027400001231AE0FB681B8D002B94D1FB681B68EA
:102750001A68FB681B6842F400721A60FB6820224A
:1027600083F83D20FB68002283F83E20FB680022AE
:1027700083F83C20002300E0022318461837BD46AA
:1027800080BD00BF020010000000FFFF80B588B0D0
:1027900002AFF8607A603B600B467B81FB68DB6AC6
:1027A0007B617B69082B06D07B69012B03D07B6999
:1027B00013F5803F08D1FB681B681A68FB681B682B
:1027C00042F480721A600BE0FB681B6B122B07D17E
:1027D000FB681B681A68FB681B6842F480721A6009
:1027E0003B6800937B6800224FF00111F86800F00D
:1027F0004FF80346002B0DD0FB681B681B6803F4E1
:102800008073B3F5807F03D1FB684FF400721A64C4
:10281000032335E0FB681B69B3F5804F08D17B8942
:10282000DBB21A46FB681B6802F0FE021A611BE06D
:102830007B89DB11DBB203F00603DBB263F00F032D
:10284000DAB2FB681B681A613B687A680E49F8685F
:1028500000F098F80346002B01D0012310E07B899B
:10286000DAB2FB681B681A613B687A680749F86846
:1028700000F088F80346002B01D0012300E000237C
:1028800018461837BD4680BD08000100020001004F
:1028900080B584B000AFF860B9603B601346FB714F
:1028A00048E03B68B3F1FF3F44D0FFF725FA02460A
:1028B000BB69D31A3A689A4202D33B68002B39D1DC
:1028C000BB681B0CDBB2012B0DD1FB681B685B697D
:1028D000DA43BB6813409BB2002B0CBF01230023DB
:1028E000DBB21A460CE0FB681B689B69DA43BB68E5
:1028F00013409BB2002B0CBF01230023DBB21A460E
:10290000FB799A4216D1FB6800221A63FB682022E9
:1029100083F83D20FB68002283F83E20FB681B6C97
:1029200043F02002FB681A64FB68002283F83C2015
:10293000012323E0BB681B0CDBB2012B0DD1FB682C
:102940001B685B69DA43BB6813409BB2002B0CBF6A
:1029500001230023DBB21A460CE0FB681B689B696D
:10296000DA43BB6813409BB2002B0CBF012300234A
:10297000DBB21A46FB799A4293D0002318461037EF
:10298000BD4680BD80B584B000AFF860B9607A60A4
:102990003B6071E0FB681B685B6903F48063B3F51F
:1029A000806F23D1FB681B681A68FB681B6842F4C0
:1029B00000721A60FB681B686FF480625A61FB68E2
:1029C00000221A63FB68202283F83D20FB68002266
:1029D00083F83E20FB681B6C43F00402FB681A641A
:1029E000FB68002283F83C20012367E07B68B3F199
:1029F000FF3F41D0FFF780F902463B68D31A7A685F
:102A00009A4202D37B68002B36D1BB681B0CDBB229
:102A1000012B0CD1FB681B685B69DA43BB68134070
:102A20009BB2002B14BF01230023DBB20BE0FB6839
:102A30001B689B69DA43BB6813409BB2002B14BF31
:102A400001230023DBB2002B16D0FB6800221A639F
:102A5000FB68202283F83D20FB68002283F83E209B
:102A6000FB681B6C43F02002FB681A64FB680022C1
:102A700083F83C20012321E0BB681B0CDBB2012B57
:102A80000CD1FB681B685B69DA43BB6813409BB2DF
:102A9000002B14BF01230023DBB20BE0FB681B6893
:102AA0009B69DA43BB6813409BB2002B14BF012320
:102AB0000023DBB2002B7FF46DAF002318461037E4
:102AC000BD4680BD80B584B000AFF860B9607A6063
:102AD00034E0F86800F086F80346002B01D00123AB
:102AE00034E0BB68B3F1FF3F28D0FFF705F9024699
:102AF0007B68D31ABA689A4202D3BB68002B1DD1F7
:102B0000FB681B685B6903F08003802B16D0FB68B1
:102B100000221A63FB68202283F83D20FB68002214
:102B200083F83E20FB681B6C43F02002FB681A64AC
:102B3000FB68002283F83C20012307E0FB681B6848
:102B40005B6903F08003802BC3D100231846103744
:102B5000BD4680BD80B584B000AFF860B9607A60D2
:102B600034E0F86800F03EF80346002B01D0012362
:102B700034E0BB68B3F1FF3F28D0FFF7BDF8024651
:102B80007B68D31ABA689A4202D3BB68002B1DD166
:102B9000FB681B685B6903F00403042B16D0FB6819
:102BA00000221A63FB68202283F83D20FB68002284
:102BB00083F83E20FB681B6C43F02002FB681A641C
:102BC000FB68002283F83C20012307E0FB681B68B8
:102BD0005B6903F00403042BC3D1002318461037AC
:102BE000BD4680BD80B483B000AF78607B681B6851
:102BF0005B6903F48063B3F5806F1BD17B681B684E
:102C00006FF480625A617B6800221A637B6820221D
:102C100083F83D207B68002283F83E207B681B6C94
:102C200043F004027B681A647B68002283F83C202E
:102C3000012300E0002318460C37BD4680BC7047D6
:102C400080B586B000AF78607B68002B01D101238E
:102C500072E27B681B6803F00103002B00F08780A1
:102C6000924B5B6803F00C03042B0CD08F4B5B681A
:102C700003F00C03082B12D18C4B5B6803F48033F8
:102C8000B3F5803F0BD1894B1B6803F40033002B55
:102C90006CD07B685B68002B68D101234CE27B68B9
:102CA0005B68B3F5803F06D1804B1B687F4A43F4D5
:102CB000803313602EE07B685B68002B0CD17B4B6C
:102CC0001B687A4A23F480331360784B1B68774A79
:102CD00023F4802313601DE07B685B68B3F5A02FAD
:102CE0000CD1724B1B68714A43F4802313606F4B05
:102CF0001B686E4A43F4803313600BE06B4B1B6818
:102D00006A4A23F480331360684B1B68674A23F4D4
:102D1000802313607B685B68002B13D0FEF7ECFF09
:102D2000386108E0FEF7E8FF02463B69D31A642BDE
:102D300001D9032300E25D4B1B6803F40033002B31
:102D4000F0D014E0FEF7D8FF386108E0FEF7D4FFBA
:102D500002463B69D31A642B01D90323ECE1534BA0
:102D60001B6803F40033002BF0D100E000BF7B6848
:102D70001B6803F00203002B63D04C4B5B6803F02D
:102D80000C03002B0BD0494B5B6803F00C03082BA2
:102D90001CD1464B5B6803F48033002B16D1434BA8
:102DA0001B6803F00203002B05D07B681B69012B15
:102DB00001D00123C0E13D4B1B6823F0F8027B6882
:102DC0005B69DB00394913430B603AE07B681B69A0
:102DD000002B20D0364B01221A60FEF78DFF3861A0
:102DE00008E0FEF789FF02463B69D31A022B01D99E
:102DF0000323A1E12D4B1B6803F00203002BF0D04D
:102E00002A4B1B6823F0F8027B685B69DB002749CB
:102E100013430B6015E0264B00221A60FEF76CFF8F
:102E2000386108E0FEF768FF02463B69D31A022BBF
:102E300001D9032380E11D4B1B6803F00203002B23
:102E4000F0D17B681B6803F00803002B3AD07B6845
:102E50009B69002B19D0174B01221A60FEF74CFF1B
:102E6000386108E0FEF748FF02463B69D31A022B9F
:102E700001D9032360E10D4B5B6A03F00203002BD1
:102E8000F0D0012000F0BAFA1CE00A4B00221A60D0
:102E9000FEF732FF38610FE0FEF72EFF02463B6976
:102EA000D31A022B08D9032346E100BF00100240C9
:102EB0000000424280044242924B5B6A03F00203EC
:102EC000002BE9D17B681B6803F00403002B00F0A2
:102ED000A6800023FB758B4BDB6903F08053002B2E
:102EE0000DD1884BDB69874A43F08053D361854B12
:102EF000DB6903F08053BB60BB680123FB75824B29
:102F00001B6803F48073002B18D17F4B1B687E4A2B
:102F100043F480731360FEF7EFFE386108E0FEF7BC
:102F2000EBFE02463B69D31A642B01D9032303E16C
:102F3000754B1B6803F48073002BF0D07B68DB6853
:102F4000012B06D16F4B1B6A6E4A43F001031362DB
:102F50002DE07B68DB68002B0CD16A4B1B6A694A49
:102F600023F001031362674B1B6A664A23F00403D4
:102F700013621CE07B68DB68052B0CD1614B1B6A7C
:102F8000604A43F0040313625E4B1B6A5D4A43F0E0
:102F9000010313620BE05B4B1B6A5A4A23F00103E7
:102FA0001362584B1B6A574A23F0040313627B6871
:102FB000DB68002B15D0FEF79FFE38610AE0FEF7B4
:102FC0009BFE02463B69D31A41F28832934201D9F3
:102FD0000323B1E04B4B1B6A03F00203002BEED03E
:102FE00014E0FEF789FE38610AE0FEF785FE02462E
:102FF0003B69D31A41F28832934201D903239BE003
:10300000404B1B6A03F00203002BEED1FB7D012B2A
:1030100005D13C4BDB693B4A23F08053D3617B688D
:10302000DB69002B00F08780364B5B6803F00C03F4
:10303000082B61D07B68DB69022B46D1334B002221
:103040001A60FEF759FE386108E0FEF755FE0246A9
:103050003B69D31A022B01D903236DE0294B1B686E
:1030600003F00073002BF0D17B681B6AB3F5803F3F
:1030700008D1244B5B6823F400327B689B682149AC
:1030800013434B601F4B5B6823F474127B68196A0F
:103090007B685B6A0B431B4913434B601B4B01224C
:1030A0001A60FEF729FE386108E0FEF725FE0246A9
:1030B0003B69D31A022B01D903233DE0114B1B6856
:1030C00003F00073002BF0D035E0104B00221A60A3
:1030D000FEF712FE386108E0FEF70EFE02463B697D
:1030E000D31A022B01D9032326E0064B1B6803F0F9
:1030F0000073002BF0D11EE07B68DB69012B07D148
:10310000012319E0001002400070004060004242BC
:103110000B4B5B68FB60FB6803F480327B681B6AC7
:103120009A4206D1FB6803F470127B685B6A9A428C
:1031300001D0012300E0002318461837BD4680BDAA
:103140000010024080B584B000AF786039607B68C1
:10315000002B01D10123D0E06A4B1B6803F0070369
:103160003A689A4210D9674B1B6823F007026549F9
:103170003B6813430B60634B1B6803F007033A681B
:103180009A4201D00123B8E07B681B6803F0020378
:10319000002B20D07B681B6803F00403002B05D0B4
:1031A000594B5B68584A43F4E06353607B681B6883
:1031B00003F00803002B05D0534B5B68524A43F4DD
:1031C00060535360504B5B6823F0F0027B689B6850
:1031D0004D4913434B607B681B6803F00103002BD0
:1031E00040D07B685B68012B07D1474B1B6803F419
:1031F0000033002B15D101237FE07B685B68022B35
:1032000007D1414B1B6803F00073002B09D1012348
:1032100073E03D4B1B6803F00203002B01D1012337
:103220006BE0394B5B6823F003027B685B683649CF
:1032300013434B60FEF760FDF8600AE0FEF75CFDAB
:103240000246FB68D31A41F28832934201D9032324
:1032500053E02D4B5B6803F00C027B685B689B00BE
:103260009A42EBD1274B1B6803F007033A689A4256
:1032700010D2244B1B6823F0070222493B681343FA
:103280000B60204B1B6803F007033A689A4201D099
:10329000012332E07B681B6803F00403002B08D095
:1032A000194B5B6823F4E0627B68DB6816491343C3
:1032B0004B607B681B6803F00803002B09D0124B9E
:1032C0005B6823F460527B681B69DB000E49134383
:1032D0004B6000F021F802460B4B5B681B0903F0C2
:1032E0000F030A49CB5C22FA03F3094A1360094B26
:1032F0001B681846FEF7BEFC002318461037BD4673
:1033000080BD00BF002002400010024088870008F6
:10331000040000200800002080B487B000AF002324
:10332000FB600023BB6000237B6100237B600023E4
:103330003B611E4B5B68FB60FB6803F00C03042BD6
:1033400002D0082B03D027E0194B3B6127E0FB6834
:103350009B0C03F00F03174AD35C7B60FB6803F4FC
:103360008033002B10D0114B5B685B0C03F0010322
:10337000114AD35CBB607B680D4A03FB02F2BB6859
:10338000B2FBF3F37B6104E07B680C4A02FB03F3BE
:103390007B617B693B6102E0054B3B6100BF3B69A0
:1033A00018461C37BD4680BC704700BF0010024065
:1033B00000127A00A0870008B087000800093D00CD
:1033C00080B400AF024B1B681846BD4680BC7047F6
:1033D0000400002080B500AFFFF7F2FF0246054B66
:1033E0005B681B0A03F007030349CB5C22FA03F373
:1033F000184680BD001002409887000880B485B050
:1034000000AF78600A4B1B680A4AA2FB03235B0AE1
:103410007A6802FB03F3FB6000BFFB685A1EFA6088
:10342000002BF9D100BF00BF1437BD4680BC7047E8
:1034300004000020D34D621080B582B000AF7860E8
:103440007B68002B01D1012341E07B6893F83D307C
:10345000DBB2002B06D17B68002283F83C20786821
:10346000FEF760FA7B68022283F83D207B681A68C9
:103470007B6804331946104600F0F4FA7B68012299
:1034800083F846207B68012283F83E207B68012276
:1034900083F83F207B68012283F840207B6801226B
:1034A00083F841207B68012283F842207B68012257
:1034B00083F843207B68012283F844207B68012243
:1034C00083F845207B68012283F83D2000231846BD
:1034D0000837BD4680BD000080B485B000AF78607D
:1034E0007B6893F83D30DBB2012B01D0012332E041
:1034F0007B68022283F83D207B681B68184A934250
:103500000ED07B681B68B3F1804F09D07B681B68C5
:10351000144A934204D07B681B68134A934211D12A
:103520007B681B689B6803F00703FB60FB68062B46
:1035300010D07B681B681A687B681B6842F0010228
:103540001A6007E07B681B681A687B681B6842F09A
:1035500001021A60002318461437BD4680BC70472C
:10356000002C0140000400400008004080B582B0FB
:1035700000AF78607B68002B01D1012341E07B68BC
:1035800093F83D30DBB2002B06D17B68002283F834
:103590003C207868FEF7E4F97B68022283F83D203E
:1035A0007B681A687B6804331946104600F05AFAA3
:1035B0007B68012283F846207B68012283F83E2045
:1035C0007B68012283F83F207B68012283F840203A
:1035D0007B68012283F841207B68012283F8422026
:1035E0007B68012283F843207B68012283F8442012
:1035F0007B68012283F845207B68012283F83D2007
:10360000002318460837BD4680BD000080B584B051
:1036100000AF786039603B68002B09D17B6893F874
:103620003E30DBB2012B14BF01230023DBB222E0CA
:103630003B68042B09D17B6893F83F30DBB2012B48
:1036400014BF01230023DBB215E03B68082B09D12E
:103650007B6893F84030DBB2012B14BF01230023B9
:10366000DBB208E07B6893F84130DBB2012B14BF7A
:1036700001230023DBB2002B01D001235EE03B6875
:10368000002B04D17B68022283F83E2013E03B68C4
:10369000042B04D17B68022283F83F200BE03B68B7
:1036A000082B04D17B68022283F8402003E07B686A
:1036B000022283F841207B681B6801223968184682
:1036C00000F05CFC7B681B681E4A934207D17B6854
:1036D0001B685A6C7B681B6842F400425A647B6822
:1036E0001B68184A93420ED07B681B68B3F1804F69
:1036F00009D07B681B68144A934204D07B681B681E
:10370000124A934211D17B681B689B6803F0070340
:10371000FB60FB68062B10D07B681B681A687B680F
:103720001B6842F001021A6007E07B681B681A6898
:103730007B681B6842F001021A60002318461037AC
:10374000BD4680BD002C0140000400400008004040
:1037500080B586B000AFF860B9607A600023FB7571
:10376000FB6893F83C30012B01D10223AEE0FB68EB
:10377000012283F83C207B680C2B00F29F8001A281
:1037800052F823F0B9370008BD380008BD380008EA
:10379000BD380008F9370008BD380008BD380008FA
:1037A000BD3800083B380008BD380008BD380008A7
:1037B000BD3800087B380008FB681B68B9681846EC
:1037C00000F0BEF9FB681B689A69FB681B6842F051
:1037D00008029A61FB681B689A69FB681B6822F003
:1037E00004029A61FB681B689969BB681A69FB68E7
:1037F0001B680A439A6164E0FB681B68B968184655
:1038000000F004FAFB681B689A69FB681B6842F4C5
:1038100000629A61FB681B689A69FB681B6822F466
:1038200080629A61FB681B689969BB681B691A0210
:10383000FB681B680A439A6143E0FB681B68B96830
:10384000184600F04DFAFB681B68DA69FB681B68D4
:1038500042F00802DA61FB681B68DA69FB681B68E2
:1038600022F00402DA61FB681B68D969BB681A6937
:10387000FB681B680A43DA6123E0FB681B68B968D0
:10388000184600F097FAFB681B68DA69FB681B684A
:1038900042F40062DA61FB681B68DA69FB681B6846
:1038A00022F48062DA61FB681B68D969BB681B6916
:1038B0001A02FB681B680A43DA6102E00123FB7508
:1038C00000BFFB68002283F83C20FB7D18461837B8
:1038D000BD4680BD80B584B000AF786039600023FC
:1038E000FB737B6893F83C30012B01D10223B4E0D9
:1038F0007B68012283F83C207B68022283F83D200C
:103900007B681B689B68BB60BB6823F07703BB6068
:10391000BB6823F47F43BB607B681B68BA689A600E
:103920003B681B68B3F5005F3ED0B3F5005F00F263
:103930008780B3F5805F00F08680B3F5805F7FD825
:10394000702B1AD0702B7BD8602B50D0602B77D87F
:10395000502B3CD0502B73D8402B58D0402B6FD8D5
:10396000302B64D0302B6BD8202B60D0202B67D825
:10397000002B5CD0102B5AD062E07B6818683B6843
:1039800099683B685A683B68DB6800F0D8FA7B6846
:103990001B689B68BB60BB6843F07703BB607B68B8
:1039A0001B68BA689A604FE07B6818683B68996842
:1039B0003B685A683B68DB6800F0C1FA7B681B68AB
:1039C0009A687B681B6842F480429A603CE07B689E
:1039D00018683B6859683B68DB681A4600F038FA9B
:1039E0007B681B685021184600F08FFA2CE07B683A
:1039F00018683B6859683B68DB681A4600F056FA5D
:103A00007B681B686021184600F07FFA1CE07B6829
:103A100018683B6859683B68DB681A4600F018FA7A
:103A20007B681B684021184600F06FFA0CE07B6849
:103A30001A683B681B681946104600F066FA03E0F6
:103A40000123FB7300E000BF7B68012283F83D2067
:103A50007B68002283F83C20FB7B18461037BD466C
:103A600080BD000080B485B000AF786039607B68AD
:103A70001B68FB607B682F4A93420BD07B68B3F1D5
:103A8000804F07D07B682C4A934203D07B682B4A37
:103A9000934208D1FB6823F07003FB603B685B68CE
:103AA000FA681343FB607B68224A93420BD07B6821
:103AB000B3F1804F07D07B681F4A934203D07B68E5
:103AC0001E4A934208D1FB6823F44073FB603B68B5
:103AD000DB68FA681343FB60FB6823F080023B68F5
:103AE0005B691343FB607B68FA681A603B689A68FD
:103AF0007B68DA623B681A687B689A627B680D4A69
:103B0000934203D13B681A697B681A637B68012280
:103B10005A617B681B6903F00103002B05D07B68A9
:103B20001B6923F001027B681A6100BF1437BD4690
:103B300080BC7047002C0140000400400008004099
:103B400080B487B000AF786039607B681B6A7B61A6
:103B50007B681B6A23F001027B681A627B685B68E2
:103B60003B617B689B69FB60FB6823F07003FB6033
:103B7000FB6823F00303FB603B681B68FA68134390
:103B8000FB607B6923F002037B613B689B687A6979
:103B900013437B617B681C4A93420CD17B6923F001
:103BA00008037B613B68DB687A6913437B617B694F
:103BB00023F004037B617B68134A934211D13B6974
:103BC00023F480733B613B6923F400733B613B68E2
:103BD0005B693A6913433B613B689B693A691343EC
:103BE0003B617B683A695A607B68FA689A613B6816
:103BF0005A687B685A637B687A691A6200BF1C370F
:103C0000BD4680BC704700BF002C014080B487B027
:103C100000AF786039607B681B6A7B617B681B6AD8
:103C200023F010027B681A627B685B683B617B68EB
:103C30009B69FB60FB6823F4E043FB60FB6823F4B3
:103C40004073FB603B681B681B02FA681343FB6010
:103C50007B6923F020037B613B689B681B017A69C9
:103C600013437B617B681D4A93420DD17B6923F02E
:103C700080037B613B68DB681B017A6913437B61CE
:103C80007B6923F040037B617B68144A934213D124
:103C90003B6923F480633B613B6923F400633B6130
:103CA0003B685B699B003A6913433B613B689B69D6
:103CB0009B003A6913433B617B683A695A607B68B1
:103CC000FA689A613B685A687B689A637B687A698C
:103CD0001A6200BF1C37BD4680BC7047002C0140F3
:103CE00080B487B000AF786039607B681B6A7B6105
:103CF0007B681B6A23F480727B681A627B685B684E
:103D00003B617B68DB69FB60FB6823F07003FB6051
:103D1000FB6823F00303FB603B681B68FA681343EE
:103D2000FB607B6923F400737B613B689B681B022B
:103D30007A6913437B617B681D4A93420DD17B698D
:103D400023F400637B613B68DB681B027A691343E1
:103D50007B617B6923F480637B617B68144A9342B7
:103D600013D13B6923F480533B613B6923F4005337
:103D70003B613B685B691B013A6913433B613B68EC
:103D80009B691B013A6913433B617B683A695A603E
:103D90007B68FA68DA613B685A687B68DA637B683B
:103DA0007A691A6200BF1C37BD4680BC704700BFED
:103DB000002C014080B487B000AF786039607B6828
:103DC0001B6A3B617B681B6A23F480527B681A6222
:103DD0007B685B687B617B68DB69FB60FB6823F465
:103DE000E043FB60FB6823F44073FB603B681B68A7
:103DF0001B02FA681343FB603B6923F400533B61E9
:103E00003B689B681B033A6913433B617B680F4A1D
:103E1000934209D17B6923F480437B613B685B69F2
:103E20009B017A6913437B617B687A695A607B687E
:103E3000FA68DA613B685A687B681A647B683A6999
:103E40001A6200BF1C37BD4680BC7047002C014081
:103E500080B487B000AFF860B9607A60FB681B6A15
:103E60007B61FB681B6A23F00102FB681A62FB6836
:103E70009B693B613B6923F0F0033B617B681B015D
:103E80003A6913433B617B6923F00A037B617A69DA
:103E9000BB6813437B61FB683A699A61FB687A6986
:103EA0001A6200BF1C37BD4680BC704780B487B023
:103EB00000AFF860B9607A60FB681B6A7B61FB68E1
:103EC0001B6A23F01002FB681A62FB689B693B6166
:103ED0003B6923F470433B617B681B033A691343DE
:103EE0003B617B6923F0A0037B61BB681B017A699E
:103EF00013437B61FB683A699A61FB687A691A62CD
:103F000000BF1C37BD4680BC704780B485B000AF91
:103F1000786039607B689B68FB60FB6823F0700306
:103F2000FB603A68FB68134343F00703FB607B6860
:103F3000FA689A6000BF1437BD4680BC704780B4F1
:103F400087B000AFF860B9607A603B60FB689B683F
:103F50007B617B6923F47F437B613B681A027B684A
:103F60001A43BB6813437A6913437B61FB687A6920
:103F70009A6000BF1C37BD4680BC704780B487B0D4
:103F800000AFF860B9607A60BB6803F01F030122DC
:103F900002FA03F37B61FB681A6A7B69DB431A4010
:103FA000FB681A62FB681A6ABB6803F01F03796832
:103FB00001FA03F31A43FB681A6200BF1C37BD46BF
:103FC00080BC704780B485B000AF786039607B6892
:103FD00093F83C30012B01D1022346E07B6801229B
:103FE00083F83C207B68022283F83D207B681B68B5
:103FF0005B68FB607B681B689B68BB60FB6823F0A9
:104000007003FB603B681B68FA681343FB607B68C6
:104010001B68FA685A607B681B68164A93420ED088
:104020007B681B68B3F1804F09D07B681B68124A1C
:10403000934204D07B681B68104A93420CD1BB6842
:1040400023F08003BB603B685B68BA681343BB60C6
:104050007B681B68BA689A607B68012283F83D2000
:104060007B68002283F83C20002318461437BD46A5
:1040700080BC7047002C0140000400400008004054
:10408000002B2DE9F0471D46BBBF03F100431D4641
:1040900000232D2388B01446B8BF1446129A109EF0
:1040A0001370149BDDF84CA023F02008B8F1460FE4
:1040B00005D0B8F1450F00D10136022300E00323FB
:1040C00007AA049206AACDE902A2CDE9003622464B
:1040D0002B4601F081F8B8F1470F074619D1119B23
:1040E000DB070ED500EB06090022002320462946F7
:1040F000FCF75AFC08B1CDF81C903022079B4B45C9
:104100001ED33846079B159ADB1B136008B0BDE829
:10411000F087B8F1460F00EB0609E5D10378302BA4
:104120000AD10022002320462946FCF73DFC18B99D
:10413000C6F10106CAF80060DAF800309944D3E706
:10414000591C07911A70D9E7F7B50029B6BF2D237E
:104150002B23494209290270437029DD0DF1070321
:104160001D460A27B1FBF7F61A4607FB1614303432
:1041700002F8014C0C46632C314603F1FF33F1DCAD
:104180003031941E03F8011C2346411CAB420AD374
:104190000DF109039B1AAC4288BF0023023303448C
:1041A000181A03B0F0BD13F8016B01F8016FEDE7C9
:1041B000302330318370C170031DF1E72DE9F04FDA
:1041C00091B00C46DDF8688016461F46054600F0A3
:1041D000F1FE036818460893FBF7BAFF00230E931D
:1041E000D8F800300990073323F0070303F10802E1
:1041F00094F818A0D4F800B0C8F80020D3E90089DA
:1042000029F000430B93CDF828804FF0FF32DDE911
:104210000A01C4E912899C4BFCF7F8FB70BBDDE98D
:104220000A014FF0FF32984BFCF7D2FB30BB002263
:10423000002340464946FCF7C1FB10B12D2384F80A
:104240004330924A924BBAF1470F94BF904698463A
:1042500003234FF0000923612BF00403236033464E
:104260002146284600970FAA00F0D4F9013040F00B
:1042700090804FF0FF3011B0BDE8F08F42464B46C2
:1042800040464946FCF7C2FB48B14B46002BB8BF3D
:104290002D23804AB8BF84F843307F4BD3E763684F
:1042A0000AF0DF015A1C3FD10623636000224BF461
:1042B0008063236006920EAACDE904A20DAA0392A0
:1042C0000DF13302CDE9013263684246009328467E
:1042D0004B460A91FFF7D4FE0A99804647290D996B
:1042E00028D1C81C02DB6368994240DDAAF1020AAA
:1042F0005FFA8AFA5246013904F150000D91FFF736
:1043000023FF0E9A81461318012A236102DC2268DA
:10431000D20701D5013323619DF83330002B9ED0A5
:104320002D2384F843309AE74729BFD1002BBDD114
:104330000123BAE7BAF1650FDCD9BAF1660F18D1DB
:10434000002963680BDD216113B92268D00702D50B
:1043500001330B4423614FF00009A165DCE713B979
:104360002268D20701D50233F4E70123F2E74FF0C8
:10437000670A0E9B994205DB23682161D807EAD5BD
:104380004B1CE7E70029CCBF0122C1F10202134414
:10439000E0E723685A0507D4236942463146284698
:1043A000B84701302BD164E7BAF1650F40F2DC80E9
:1043B000D4E9120100220023FCF7F6FA002833D0DA
:1043C000012331462846354AB84701303FF451AF02
:1043D000DDE90D38434502DB2368D8070FD5DDE959
:1043E000082331462846B84701303FF442AF4FF02A
:1043F000000908F1FF3804F11A0AC84509DC2368EE
:104400009B0700F10281E0680F9B9842B8BF1846F5
:1044100031E70123524631462846B84701303FF480
:1044200028AF09F10109E8E70D9B002B38DC0123D7
:1044300031462846194AB84701303FF41AAFDDE942
:104440000D3959EA030302D12368D907D7D5DDE92D
:10445000082331462846B84701303FF40AAF4FF0F1
:10446000000A04F11A0B0D9B5B42534501DC4B46DD
:1044700093E701235A4631462846B84701303FF4B6
:10448000F8AE0AF1010AEEE7FFFFEF7FB2870008FE
:10449000B6870008BA870008BE870008C2870008F0
:1044A000A36DDDF838A05345A8BF5346002B9946AD
:1044B00036DC4FF0000B29EAE97904F11A02A36D0A
:1044C0000A93A3EB09035B4531DC0D9B9A453ADC6B
:1044D0002368DA0737D40D9BAAEB03090A9BAAEBE2
:1044E00003039945A8BF9946B9F1000F33DC4FF09B
:1044F000000829EAE97904F11A0B0D9BAAEB0303E2
:10450000A3EB090343457FF77AAF01235A463146AF
:104510002846B84701303FF4ACAE08F10108ECE79B
:10452000424631462846B8470130C2D1A1E60123B0
:10453000314628460A92B84701303FF49AAE0A9AAB
:104540000BF1010BBBE73146DDE908232846B847EC
:104550000130C0D18DE60A9A4B4631462846424486
:10456000B8470130C3D184E6DDF838A0BAF1010FB5
:1045700001DCDB0736D50123424631462846B847E1
:1045800001303FF476AEDDE9082331462846B847CE
:1045900001303FF46EAED4E91201002200230AF18B
:1045A000FF3AFCF701FAC0B9534608F1010231465F
:1045B0002846B84701300CD15BE601235A46314604
:1045C0002846B84701303FF454AE08F10108D04501
:1045D000F3DB4B4604F15002E0E64FF0000804F133
:1045E0001A0BF4E701234246E1E701234A4631462C
:1045F0002846B84701303FF43CAE08F10108E368B3
:104600000F995B1A4345F0DCFDE64FF0000804F11A
:104610001909F4E72DE9F047164698468A680B69B0
:1046200007469342B8BF1346336091F843200C46C7
:10463000DDF820900AB1013333602368990642BF48
:10464000336802333360256815F0060506D104F19E
:10465000190AE36832689B1AAB422BDC94F84330AA
:104660002268003B18BF0123920630D441463846E9
:1046700004F14302C847013023D02368226903F0C4
:104680000603042B14BF002533684FF0000608BF53
:10469000E56804F11A0408BFED1A54F8123C08BF8B
:1046A00025EAE5759342C4BF9B1AED18B5421AD1AD
:1046B000002008E00123524641463846C8470130F1
:1046C00003D14FF0FF30BDE8F0870135C1E730205E
:1046D000E11881F843005A1C94F845102244023333
:1046E00082F84310C2E70123224641463846C847B4
:1046F0000130E6D00136D9E72DE9FF470F7E91461C
:10470000782F80460C469A460C9E01F1430207D84A
:10471000622F0AD8002F00F0D380582F00F0BA8003
:1047200004F1420684F842703AE0A7F16303152BC6
:10473000F6D801A151F823F091470008A5470008D9
:1047400021470008214700082147000821470008A9
:10475000A547000821470008214700082147000815
:1047600021470008A7480008CF4700086148000813
:104770002147000821470008C948000821470008D0
:10478000CF47000821470008214700086948000872
:1047900033681A1D1B68326004F1420684F8423007
:1047A00001239EE033682068191D3160060601D59B
:1047B0001D6803E04506FBD5B3F90050002D03DA70
:1047C0002D236D4284F843300A23594811E02168B3
:1047D0003368080653F8045B02D4490648BFADB2FB
:1047E0006F2F336014BF0A2308235148002184F837
:1047F00043106668002EA8BF2168A660A4BF21F000
:10480000040121600DB9002E4BD01646B5FBF3F123
:1048100003FB1157C75D06F8017D2F46BB420D46CD
:10482000F4D9082B0BD12368DF0708D52369616809
:104830009942DEBF302306F8013C06F1FF36921B99
:1048400022614B4621464046CDF800A003AAFFF75F
:10485000E1FE01304AD14FF0FF3004B0BDE8F087EF
:10486000236843F0200323607827324884F845709A
:10487000236831681F0651F8045B02D45F0648BF05
:10488000ADB23160D90744BF43F0200323601DB1AE
:104890001023ABE72648E9E7236823F020032360D1
:1048A000F6E71646BDE733682568181D6169306074
:1048B0002E061B6801D5196002E06806FBD5198039
:1048C000002316462361BCE7336800211A1D3260BD
:1048D0001E686268304600F0E4FB08B1801B60602F
:1048E00063682361002384F84330AAE732464946CF
:1048F00040462369D0470130ADD023689B0713D4CD
:10490000E068039B9842B8BF1846A6E701233246E9
:1049100049464046D04701309DD00135E3680399B0
:104920005B1AAB42F2DCEBE7002504F11906F5E770
:10493000C4870008D58700082DE9F04F87B003939E
:104940008B6817465A1EB2F5AE7F82BF6FF4AE7504
:1049500003EB050B40F25D130A464FF0000588BFDC
:104960008B600B68804643F4F06342F81C3B0C46B6
:1049700098BF4FF0000B1646AA46A946CDE904554C
:1049800001920295A26852B13B681B784E2B65D804
:10499000402B3DD8A3F12B01C8B20E283BD9B9F169
:1049A000000F03D0236823F4807323600AF1FF3AD9
:1049B000BAF1010F00F21881019B9E4200F20981B9
:1049C000012007B0BDE8F08FA3F161020D2AE6D8FF
:1049D00001A151F822F000BF1F4B00089F490008B9
:1049E0009F4900089F4900087F4B0008574B00086B
:1049F0009F4900089F4900082D4B00089F49000867
:104A00009F4900089F4900089F490008E54A00089F
:104A1000A3F14102DAE70E29C1D801A050F821F034
:104A2000D54A00089F490008D54A00086B4B00088A
:104A30009F4900087D4A0008BB4A0008BB4A00089D
:104A4000BB4A0008BB4A0008BB4A0008BB4A000832
:104A5000BB4A0008BB4A0008BB4A00086E2B09D8B5
:104A6000602BB1D8542B7BD0592B98D1072D96D1E0
:104A700008252CE0742B73D0792BF6E72168C80544
:104A80001BD521F08001216009F10109BBF1000F64
:104A900003D001320BF1FF3BA260A368013BA3608E
:104AA0002369013323617B68013B002B7B6040F36A
:104AB00087803B6801333B6064E71AEB05017FF4B4
:104AC0006EAF0D468A46226822F4C072226006F854
:104AD000013BE2E7226810067FF561AF22F0800219
:104AE0002260F4E7BAF1000F0ED1B9F1000F0ED138
:104AF000226802F4E061B1F5E06F08D122F4F062BF
:104B00004FF0010A2260E2E7BAF1020F55D0012D01
:104B100002D0042D7FF443AF0135EDB2D7E7BAF1EF
:104B2000010F7FF43CAF4FF0020AD0E77DB9B9F135
:104B3000000F7FF437AF226802F4E061B1F5E06F57
:104B400040F0038122F4F06201252260BFE7032DCB
:104B5000E2D0052DDEE7022D7FF421AF0325B6E775
:104B6000062D7FF41CAF0725B1E7226891057FF57C
:104B700016AF22F420722260CDF80890A7E72268D1
:104B800002F4A061B1F5806F06D050057FF507AF44
:104B9000B9F1000F00F0D980910558BF029922F4B5
:104BA000F06258BFA9EB010142F4C0724FF0000956
:104BB00058BFCDE90416226089E74FF0030A86E763
:104BC00039464046D4F88031984700283FF4DAAEA1
:104BD000E5E6D4F87C313A46404616F8011D984780
:104BE0002369013B2361E7E66B1E062B24D8022DC7
:104BF00036D8019B9E427FF6E3AED4F87C313A462C
:104C0000404616F8011D98472369013B2361F0E7F0
:104C1000D4F87C313A4640461BF8011D9847236979
:104C2000013B23610AF1FF3A5FFA8AFABAF1020FF7
:104C3000EED1033DEDB2761B2368DA0530D55B0576
:104C400011D5019B9E427FF6BBAED4F87C313A462B
:104C5000404616F8011D98472369013B2361F0E7A0
:104C6000AA46B346DEE716F8011C2369652903F15D
:104C7000FF3306F1FF3523610CD045290AD0D4F863
:104C80007C313A4640469847236916F8021C013B9E
:104C9000B51E23613A464046D4F87C3198472E46EB
:104CA000226812F0100201D000208AE632702368D8
:104CB00003F4C063B3F5806F1CD1029B4B45A3EB9B
:104CC000090223D100224046019902F0EDFB039B2B
:104CD00025681B6815F0020F06460F4603F1040213
:104CE0001FD003990A601B68C3E90067E3680133BA
:104CF000E360D9E7049B002BE4D005990A234046E2
:104D0000013102F051FC049B059EC21A04F26F139C
:104D10009E4228BF04F5B77630460D4900F0DEF814
:104D2000D0E76D07DDD4039D2A601D6802460B465F
:104D3000FBF76CFE20B1074800F0C2F92860D5E708
:104D400030463946FBF7C0FEF8E74FF000092DE684
:104D5000E68700087D8B0008002310B50446C0E9F3
:104D60000033C0E90433836081814366C28183617B
:104D7000194608225C3000F014F90D4B246263627E
:104D80000C4BA3620C4BE3620C4B23630C4B9C4219
:104D900006D003F16802944202D0D0339C4205D180
:104DA00004F15800BDE8104000F078B910BD00BF14
:104DB0001D4F00083F4F0008774F00089B4F000829
:104DC000E0020020024A0349034800F069B800BF2E
:104DD000100000205D7900082000002041680C4B85
:104DE00010B59942044601D002F0B8FDA168094B04
:104DF000994202D0204602F0B1FDE168064B99428B
:104E000004D02046BDE8104002F0A8BD10BD00BF90
:104E1000E002002048030020B003002010B50B4B37
:104E20000B4C0C4A20461A6004210022FFF794FF25
:104E300004F1680001220921FFF78EFF04F1D00080
:104E40000222BDE810401221FFF786BF180400209F
:104E5000E0020020C54D0008014800F020B900BF65
:104E600021040020014800F01BB900BF21040020EC
:104E700010B50446FFF7F0FF236A1BB1BDE81040F0
:104E8000FFF7F0BF044B2362044B1B68002BF5D1E6
:104E9000FFF7C4FFF2E700BFDD4D00081804002053
:104EA0002DE9F8430746884614460026D4E90195C3
:104EB000B9F1010905D52468002CF7D13046BDE8C9
:104EC000F883AB89012B07D9B5F90E30013303D034
:104ED00029463846C04706436835E9E70EB46FF007
:104EE000004100B59CB01DAB029006900791049163
:104EF0000848094953F8042B0591006802A9019359
:104F000002F0B0FB0022029B1A701CB05DF804EBAB
:104F100003B070471C0000200802FFFF10B50C46CC
:104F2000B1F90E1000F06CF80028ABBF636DA389D7
:104F30001B1823F48053ACBF6365A38110BD2DE91A
:104F4000F0411F468B890546DB050C46164605D504
:104F500002230022B1F90E1000F040F8A389324676
:104F600023F48053A38128463B46B4F90E10BDE8D4
:104F7000F04100F057B810B50C46B1F90E1000F032
:104F80002DF8431CA38915BF606523F4805343F4B7
:104F90008053A38118BFA38110BDB1F90E1000F09A
:104FA0000DB803460244934200D1704703F8011B39
:104FB000F9E70000004870475C01002038B5002385
:104FC000054D044608462B60FCF7ABFD431C02D19F
:104FD0002B6803B1236038BD1C04002038B504469B
:104FE000084611460022054D2A601A46FCF7BDFD11
:104FF000431C02D12B6803B1236038BD1C04002080
:1050000038B50446084611460022054D2A601A4666
:10501000FCF74EFD431C02D12B6803B1236038BD61
:105020001C04002038B50446084611460022054DF0
:105030002A601A46FCF759FD431C02D12B6803B1C4
:10504000236038BD1C040020014B1868704700BF66
:105050001C00002070B500260C4D0D4C641BA410E4
:10506000A64209D103F066FB00260A4D0A4C641BD8
:10507000A410A64205D170BD55F8043B98470136EF
:10508000EEE755F8043B98470136F2E7E88B000855
:10509000E88B0008E88B0008EC8B0008704770472D
:1050A0007047034610B5C9B202449342184601D175
:1050B000002003E0047801338C42F6D110BD0000DB
:1050C000004870470000C07F2DE9F74F03690C6965
:1050D0000746A3427EDB013CA30000F1140501F169
:1050E0001408009305EB8403019358F8243055F815
:1050F000242001339A42B2FBF3F608EB84092ED345
:105100004FF0000AC446AE46D3465CF8043B98B262
:1051100006FB00A01B0C020C06FB0323DEF800209C
:1051200080B292B2121A5A44DEF800004FEA134AD3
:105130009BB2C3EB224303EB104392B242EA034219
:10514000E1454FEA234B4EF8042BDED2009BEB588F
:105150002BB9019B043B9D421A462FD33C61384634
:1051600001F0C2F9002825DB2946002058F8042B5D
:10517000D1F800C01FFA82FE1FFA8CF3A3EB0E03D6
:105180000344120CC2EB234202EB1C429BB243EAE3
:105190000243C1454FEA224041F8043BE6D255F8AC
:1051A000242005EB840322B9043B9D421A460BD30D
:1051B0003C610136304603B0BDE8F08F1268043B15
:1051C000002ACBD1013CC6E71268043B002AEFD18C
:1051D000013CEAE70020EEE72DE9F04F14461D46BA
:1051E000C76997B08346CDE90245239E7FB9102059
:1051F00000F002FE0246CBF81C0020B9EF21A84BBC
:10520000A84802F023FCC0E901770760C760DBF81B
:105210001C30196859B15A68012393404A608B6069
:10522000584600F0DFFE0022DBF81C301A602B1E0F
:10523000AFBF0023012223F000430393A8BF3360D4
:10524000DDF80C80984BB8BF326033EA080312D106
:1052500042F20F73229A1360C8F31303234300F042
:105260005085249BDFF844A2002B00F052850AF100
:10527000030300F04CBDDDE90223CDE90C23DDE999
:105280000C0100220023FBF78FFB074658B10123D6
:10529000229A1360249B13B1854B249A1360DFF884
:1052A00014A200F036BD14AB019315AB0093584621
:1052B000DDE90C2301F030FAC8F30A568146002ECE
:1052C00077D0DDE90C010D9BA6F2FF36C3F3130383
:1052D00043F07F5343F44013129719460022764B54
:1052E000FAF742FF68A3D3E90023FBF7F5F868A3B8
:1052F000D3E90023FAF73AFF044630460D46FBF7A0
:1053000081F865A3D3E90023FBF7E6F802460B46D4
:1053100020462946FAF72AFF04460D46FBF78CFB88
:1053200000220746002320462946FBF747FB40B1F1
:105330003846FBF767F822462B46FBF735FB00B9EA
:10534000013F162F53D8DDE90C015C4B03EBC7037B
:10535000D3E90023FBF732FB00284AD00023013FAA
:105360000F93149B9B1B5A1E46BFC3F101080023D9
:105370004FF00008099248BF0993002F3BDB099BBF
:105380000E973B44099300230A93209B092B66D870
:10539000052BC4BF043B2093209BC8BF0024A3F16E
:1053A0000203D8BF0124032B64D8DFE803F02B38B5
:1053B0003656DDE914631E4406F23243202BC1BF8A
:1053C000C3F1400308FA03F806F2124324FA03F388
:1053D000D6BFC3F1200348EA030004FA03F0FBF749
:1053E00001F80122A1F1F873013E129275E7012341
:1053F000B6E70F90B5E77B420A930023A8EB0708B6
:105400000E93C2E700230B93219B002B35DC012375
:105410001A46CDE9073321920BE00123F3E700237D
:105420000B93219BFB1808930133012B0793B8BF03
:10543000012300210422DBF81C0002F114059D4227
:105440001FD94160584600F08DFD8246002839D1B1
:10545000024640F2AF111A4BD2E60123E0E70124E5
:1054600000230B9420934FF0FF330022CDE9073344
:105470001223D0E701230B93F5E7219BCDE90733F6
:10548000D7E701315200D8E761436F63A787D23F66
:10549000B3C8608B288AC63FFB799F501344D33F23
:1054A000F88700080F8800080000F07FF4870008E4
:1054B000C3870008C28700080000F83F0889000879
:1054C00067880008DBF81C301860079B0E2B00F281
:1054D000A480002C00F0A180002F33DD864B07F064
:1054E0000F0203EBC203F805D3E90034CDE904341D
:1054F0004FEA271416D5DDE90C01804B0326D3E9CA
:105500000823FBF713F9CDE9020104F00F047B4DEA
:1055100054B9DDE90423DDE90201FBF707F9CDE920
:10552000020128E00226F2E7E10708D5DDE90401DF
:10553000D5E90023FAF7D0FFCDE904010136641064
:105540000835E5E700F0D280DDE90C017C426A4BCA
:1055500004F00F0203EBC203D3E90023FAF7BCFF08
:1055600002260023CDE90201644D2411002C40F0F5
:10557000B280002BD3D1DDE902450F9B002B00F058
:10558000B7800022204629465D4BFBF717FA00281A
:1055900000F0AE80079B002B00F0AA80089B002B38
:1055A00037DD7B1E2046049300222946554BFAF72F
:1055B00093FFCDE90201089C01363046FAF722FF3D
:1055C000DDE90223FAF788FF00224F4BFAF7CEFD00
:1055D0000546A1F15076002C40F09A80DDE90201E9
:1055E00000224A4BFAF7C0FD02460B46CDE90223E2
:1055F0002A463346FBF700FA002840F08E82DDE9A8
:1056000002012A4606F10043FBF7D8F9002840F0D2
:105610002781DDE90C34CDE90234159B002BC0F263
:1056200063810E2F00F36081334B03EBC703D3E993
:105630000034CDE90434219B002B03DA079B002BB7
:1056400040F30081DDE902455646DDE904232046AA
:105650002946FBF76BF8FBF7EFF98046FAF7D2FE25
:10566000DDE90423FAF738FF02460B4620462946B7
:10567000FAF77AFD08F13004079D06F8014BA6EB16
:105680000A04A54202460B4640F01681FAF76EFD69
:10569000DDE9042304460D46FBF7AEF9002840F08F
:1056A000F880DDE9042320462946FBF77DF918B18F
:1056B00018F0010F40F0ED804946584600F092FC8A
:1056C00000233370229B01371F60249B002B00F0C6
:1056D00020831E601DE3E20705D5D5E90023FAF714
:1056E000FBFE01230136641008353FE7022642E73E
:1056F000079C049761E700BF08890008E08800085C
:105700000000F03F0000244000001C400000144056
:10571000704B0B9903EBC40353E902235444002953
:1057200045D000206C49FBF701F833462A46FAF7CA
:105730001BFD5646CDE91001DDE90201FBF77CF9BE
:105740000546FAF75FFE02460B46DDE90201FAF76D
:105750000BFD02460B463035CDE90223DDE910236F
:1057600006F8015BFBF72AF9002863D1DDE9022383
:1057700000205A49FAF7F8FCDDE91023FBF71EF97F
:10578000002840F08780A6423FF443AFDDE91001D6
:105790000022534BFAF7A0FE0022CDE91001DDE90B
:1057A00002014F4BFAF798FECDE90201C4E73146FA
:1057B0002846FAF791FE5646CDE910011394DDE92B
:1057C0000201FBF739F90546FAF71CFE02460B46C3
:1057D000DDE90201FAF7C8FC02460B46303506F84F
:1057E000015BA642CDE902234FF0000224D1DDE99E
:1057F0001001394BFAF7BAFC02460B46DDE902010B
:10580000FBF7FAF8002845D1DDE9102300203249E2
:10581000FAF7AAFC02460B46DDE90201FBF7CEF8D7
:1058200000283FF4F6AE139E731E139316F8013C46
:10583000302BF8D0049F3FE7294BFAF74DFECDE916
:105840000201BCE70CD1DDE904010022254BFAF787
:1058500043FEDDE90223FBF7C5F8002800F05B8179
:1058600000242546219B5646DB430493002721460E
:10587000584600F0B7FB002DDCD02FB1AF4203D06B
:105880003946584600F0AEFB2946584600F0AAFBC0
:10589000D0E7049733461E4613F8012D392A07D165
:1058A0009A45F8D1049A0132049230228AF80020F5
:1058B0001A7801321A70BDE70022094BFAF70CFE84
:1058C0000022002304460D46FBF76EF800283FF443
:1058D000BCAEF1E6088900080000E03F0000F03FA0
:1058E00000002440000014400B9A002A00F0DB80E6
:1058F000209A012A00F3BF80129A002A00F0B78094
:1059000003F2334346460A9C099A01211A44584639
:105910009844099200F064FC05465EB1099B002B97
:1059200008DDB342A8BF3346099AA8EB0308F61A6C
:10593000D31A09930A9BF3B10B9B002B00F0B7809D
:105940008CB129462246584600F008FD4A460146D9
:105950000546584600F05AFC49460490584600F067
:1059600041FB049B99460A9B1A1B04D049465846A2
:1059700000F0F4FC81460121584600F031FC0E9BFA
:105980000446002B00F0C9811A460146584600F033
:10599000E5FC209B0446012B00F38F80029B002B2B
:1059A00040F08780039BC3F31303002B40F08380F8
:1059B000039B23F000431B0D1B052BB1099B08F132
:1059C00001080133099301230A930E9B002B00F079
:1059D000AA81236904EB8303186900F0B5FBC0F1C9
:1059E0002000099B184410F01F0071D0C0F1200363
:1059F000042B65DD099BC0F11C0003448044064470
:105A00000993B8F1000F05DD49464246584600F0BB
:105A1000FFFC8146099B002B05DD21461A465846AE
:105A200000F0F6FC04460F9B002B53D0214648465D
:105A300000F05AFD00284DDA7B1E494604930A22E5
:105A40000023584600F0F0FA0B9B8146002B00F033
:105A50006C81002329460A22584600F0E5FA089B8B
:105A60000546002B61DC209B022B3BDC5DE0149B98
:105A7000C3F1360346E7079B5C1E0A9BA342BFBFE8
:105A80000A9B0E9AE31AD218A8BF1C1B079BBEBF25
:105A90000A940E920024002BB5BFA8EB03064646DD
:105AA0000023079B30E746460A9C0B9D35E70A9A80
:105AB0005CE7002388E7029B86E700230A9388E7D8
:105AC0009FD0099A1C331A4498441E44099298E7BF
:105AD0000346F6E7079B0497002B20DC0893209BE6
