:020000040800F2
:1000000000500020890C0008250C0008270C00086F
:10001000290C00082B0C00082D0C00080000000023
:100020000000000000000000000000002F0C00088D
:10003000310C000800000000330C0008350C0008EB
:10004000D10C0008D10C0008D10C0008D10C00081C
:10005000D10C0008D10C0008D10C0008D10C00080C
:10006000D10C0008D10C0008D10C0008D10C0008FC
:10007000D10C0008D10C0008D10C0008D10C0008EC
:10008000D10C0008D10C0008D10C0008D10C0008DC
:10009000D10C0008D10C0008D10C0008D10C0008CC
:1000A000D10C0008D10C0008D10C0008D10C0008BC
:1000B000390C0008D10C0008D10C0008D10C000844
:1000C000D10C0008D10C0008D10C0008D10C00089C
:1000D000D10C0008D10C0008D10C0008D10C00088C
:1000E000D10C0008D10C0008D10C00080000000061
:1000F0000000000000000000000000000000000000
:0C01000000000000000000005FF808F1A3
:1001100010B5054C237833B9044B13B10448AFF341
:1001200000800123237010BD5C000020000000004F
:100130009428000808B5034B1BB103490348AFF3EB
:10014000008008BD00000000600000209428000826
:1001500070B54FF0FF0C4CF4E06C1CEA11541DBF5D
:100160001CEA135594EA0C0F95EA0C0F00F0DEF828
:100170002C4481EA030621EA4C5123EA4C5350EA0D
:10018000013518BF52EA033541F4801143F480135E
:1001900038D0A0FB02CE4FF00005E1FB02E506F0EF
:1001A0000042E0FB03E54FF00006E1FB03569CF044
:1001B000000F18BF4EF0010EA4F1FF04B6F5007F4A
:1001C00064F5407404D25FEA4E0E6D4146EB0606BC
:1001D00042EAC62141EA55514FEAC52040EA5E5045
:1001E0004FEACE2EB4F1FD0C88BFBCF5E06F1ED8EF
:1001F000BEF1004F08BF5FEA500E50F1000041EB26
:10020000045170BD06F0004646EA010140EA0200D2
:1002100081EA0301B4EB5C04C2BFD4EB0C0541EAF4
:10022000045170BD41F480114FF0000E013C00F309
:10023000AB8014F1360FDEBF002001F0004170BD2D
:10024000C4F10004203C35DA0C341BDC04F1140446
:10025000C4F1200500FA05F320FA04F001FA05F2D2
:1002600040EA020001F0004221F0004110EBD3709F
:1002700021FA04F642EB06015EEA430E08BF20EACB
:10028000D37070BDC4F10C04C4F1200500FA04F36E
:1002900020FA05F001FA04F240EA020001F0004100
:1002A00010EBD37041F100015EEA430E08BF20EA73
:1002B000D37070BDC4F1200500FA05F24EEA020EBB
:1002C00020FA04F301FA05F243EA020321FA04F0EA
:1002D00001F0004121FA04F220EA020000EBD370A1
:1002E0005EEA430E08BF20EAD37070BD94F0000FA1
:1002F0000FD101F00046400041EB010111F4801FD5
:1003000008BF013CF7D041EA060195F0000F18BF85
:10031000704703F00046520043EB030313F4801FC1
:1003200008BF013DF7D043EA0603704794EA0C0F7B
:100330000CEA135518BF95EA0C0F0CD050EA410691
:1003400018BF52EA4306D1D181EA030101F000410E
:100350004FF0000070BD50EA410606BF1046194636
:1003600052EA430619D094EA0C0F02D150EA013642
:1003700013D195EA0C0F05D152EA03361CBF104683
:1003800019460AD181EA030101F0004141F0FE4122
:1003900041F470014FF0000070BD41F0FE4141F4A6
:1003A000780170BD81F0004102E000BF83F000439E
:1003B00030B54FEA41044FEA430594EA050F08BF00
:1003C00090EA020F1FBF54EA000C55EA020C7FEAC4
:1003D000645C7FEA655C00F0E2804FEA5454D4EB41
:1003E0005555B8BF6D420CDD2C4480EA020281EA0B
:1003F000030382EA000083EA010180EA020281EA43
:100400000303362D88BF30BD11F0004F4FEA013194
:100410004FF4801C4CEA113102D0404261EB4101A3
:1004200013F0004F4FEA03334CEA133302D0524229
:1004300063EB430394EA050F00F0A780A4F10104E5
:10044000D5F1200E0DDB02FA0EFC22FA05F280181F
:1004500041F1000103FA0EF2801843FA05F3594105
:100460000EE0A5F120050EF1200E012A03FA0EFC84
:1004700028BF4CF0020C43FA05F3C01851EBE371AE
:1004800001F0004507D54FF0000EDCF1000C7EEBCB
:1004900000006EEB0101B1F5801F1BD3B1F5001F09
:1004A0000CD349085FEA30004FEA3C0C04F1010428
:1004B0004FEA445212F5800F80F09A80BCF1004F51
:1004C00008BF5FEA500C50F1000041EB045141EAD3
:1004D000050130BD5FEA4C0C404141EB0101013C9C
:1004E00028BFB1F5801FE9D291F0000F04BF01468B
:1004F0000020B1FA81F308BF2033A3F10B03B3F15D
:1005000020020CDA0C3208DD02F1140CC2F10C02EC
:1005100001FA0CF021FA02F10CE002F11402D8BF4A
:10052000C2F1200C01FA02F120FA0CFCDCBF41EA16
:100530000C019040E41AA2BF01EB0451294330BDE5
:100540006FEA04041F3C1CDA0C340EDC04F11404C2
:10055000C4F1200220FA04F001FA02F340EA030099
:1005600021FA04F345EA030130BDC4F10C04C4F1DF
:10057000200220FA02F001FA04F340EA03002946BF
:1005800030BD21FA04F0294630BD94F0000F83F409
:10059000801306BF81F480110134013D4EE77FEAEC
:1005A000645C18BF7FEA655C29D094EA050F08BF38
:1005B00090EA020F05D054EA000C04BF1946104619
:1005C00030BD91EA030F1EBF0021002030BD5FEA5D
:1005D000545C05D14000494128BF41F0004130BD85
:1005E00014F580043CBF01F5801130BD01F00045D9
:1005F00045F0FE4141F470014FF0000030BD7FEA4C
:10060000645C1ABF194610467FEA655C1CBF0B4646
:10061000024650EA013406BF52EA033591EA030F5D
:1006200041F4002130BD00BF90F0000F04BF002155
:10063000704730B54FF4806404F132044FF0000588
:100640004FF0000150E700BF90F0000F04BF002101
:10065000704730B54FF4806404F1320410F0004567
:1006600048BF40424FF000013EE700BF42004FEA62
:10067000E2014FEA31014FEA02701FBF12F07F43DF
:1006800093F07F4F81F06051704732F07F4208BF96
:10069000704793F07F4F04BF41F40021704730B59D
:1006A0004FF4607401F0004521F000411CE700BFE9
:1006B00050EA010208BF704730B54FF000050AE06C
:1006C00050EA010208BF704730B511F0004502D56D
:1006D000404261EB41014FF4806404F132045FEA6F
:1006E000915C3FF4D8AE4FF003025FEADC0C18BF18
:1006F00003325FEADC0C18BF033202EBDC02C2F10A
:10070000200300FA03FC20FA02F001FA03FE40EA9B
:100710000E0021FA02F11444BDE600BF4A0011D2D6
:1007200012F5001211D20DD56FF47873B3EB62524B
:100730000ED44FEAC12343F0004343EA505323FA57
:1007400002F070474FF00000704750EA013002D1CC
:100750004FF0FF3070474FF0000070471FB500F0BA
:10076000F003000143F00C02C0B243F008038DF81F
:100770000D3040F00C038DF80E30642340F008007B
:100780008DF80C208DF80F0000934E21042303AA4E
:10079000024800F0D7FD05B05DF804FBCC00002056
:1007A0001FB500F0F003000143F00D02C0B243F0AA
:1007B00009038DF80D3040F00D038DF80E306423E1
:1007C00040F009008DF80C208DF80F0000934E21A9
:1007D000042303AA024800F0B5FD05B05DF804FB50
:1007E000CC00002008B50120FFF7B8FFBDE80840A5
:1007F000022000F0B7BA18B98031C8B2FFF7AEBF17
:10080000C031FAE710B5441E14F8010F00B910BD4D
:10081000FFF7C6FFF8E708B5322000F0A3FA302052
:10082000FFF79CFF052000F09DFA3020FFF796FFB0
:10083000012000F097FA3020FFF790FF0A2000F027
:1008400091FA2020FFF78AFF0A2000F08BFA282077
:10085000FFF784FF0820FFF781FF0120FFF77EFFED
:10086000022000F07FFA0620FFF778FFBDE808407D
:100870000C20FFF773BF000038B503680446B3F1DE
:10088000804F0ED1037F012B0BD14FF40041144850
:1008900000F0B6FB134D014620B9204601F0C4F824
:1008A000286038BD0021204601F0BEF80E4B1860CC
:1008B0002B68C01AFFF7B8FE07A3D3E90023FFF7A0
:1008C00047FC0A4B0022FFF743FCFFF727FF084BCA
:1008D0001860E6E7AFF300809AB1683A3B196C3FC5
:1008E00000080140800000207C0000200000E03F64
:1008F00078000020F8B5032500240F4F0F4E012289
:100900003846114600F082FB0A2000F02BFA002244
:100910000121384600F07AFB4FF47A7000F022FA99
:10092000013D336815F0FF051C44E8D10323B4FBF7
:10093000F3F43460F8BD00BF0008014078000020E7
:1009400000B591B02422002107A801F013FB142266
:10095000002101A801F00EFB0223012106931023C0
:1009600006A8CDE90A1300F0C7FD014608B172B62A
:10097000FEE70F23CDE90300CDE90130059001A882
:1009800000F07CFF08B172B6FEE711B05DF804FB21
:1009900000B595B000F0C2F9FFF7D2FF1022002198
:1009A0000DEB020001F0E6FA4B4B01219A694B482E
:1009B00042F004029A619A69002402F00402009253
:1009C000009A9A69012642F008029A619B69002206
:1009D00003F008030193019B00F018FB02233F483A
:1009E00004A9CDE90643CDE9046600F031FA3C489C
:1009F0003C493D4BC0E90244C0E900134FF4804339
:100A0000C0E90644C0E90434046200F0F3FB054683
:100A100008B172B6FEE710220146CDE902000DEBE7
:100A2000020001F0A7FA47234FF080422F4CC4E99F
:100A300000234FF6FF732046C4E90335A560A56186
:100A400001F0E0F808B172B6FEE7CDE9020002A9B4
:100A5000204601F03FFA024608B172B6FEE7CDE942
:100A60000406CDE9060004A9204601F021F9054657
:100A700008B172B6FEE7204600F0ACFF29462046DA
:100A800001F0B6F9FFF7C7FEFFF7ACFE1848FFF715
:100A9000B9FE4FF4FA6000F065F9FFF7A3FE2946AE
:100AA0002846FFF7A8FE1348FFF7ACFE124D134C83
:100AB000FFF720FF2A68214604A801F03BFA002135
:100AC0000120FFF798FE04A8FFF79CFE4FF4FA7090
:100AD00000F048F9ECE700BF0010024000080140B8
:100AE000CC00002000540040A086010084000020BB
:100AF000AC280008B528000878000020BF280008AE
:100B00000E4B82B09A6942F001029A619A6902F032
:100B100001020092009ADA6942F08052DA61DB69E0
:100B2000074A03F080530193019B536823F0E0636D
:100B300043F08063536002B0704700BF0010024072
:100B40000000014010B5044686B01022002102A822
:100B500001F010FA2268114B9A421CD1104CC022AD
:100B6000A369104843F00803A361A36902A903F035
:100B700008030093009B1223CDE90223032305936E
:100B800000F066F9E36943F40013E361E36903F4F9
:100B900000130193019B06B010BD00BF005400403C
:100BA00000100240000C014010B5044686B010222F
:100BB000002102A801F0DEF92368B3F1804F2BD1A8
:100BC00003F50433DA69154842F00102DA61DA69A3
:100BD00002A902F001020092009A9A6942F004020E
:100BE0009A619B6903F004030193019B4FF4004356
:100BF000029300F02DF90A4A1C20536823F4407335
:100C000043F0E06343F4807353600022114600F028
:100C1000CDF81C2000F0FAF806B010BD0008014025
:100C200000000140FEE7FEE7FEE7FEE7FEE7704753
:100C30007047704700F084B8014800F00FBF00BF54
:100C4000840000200B4A0346116810B509B90A490F
:100C50001160106809490A4C0344091B8B4206D9EC
:100C600001F090F90C2303604FF0FF3010BD1360CA
:100C7000FCE700BF2001002070020020005000208F
:100C80000004000070470000FFF7FCFF0B480C4910
:100C90000C4A002302E0D458C4500433C4188C42D8
:100CA000F9D3094A094C002301E013600432A2423F
:100CB000FBD301F06DF9FFF76BFE704700000020D9
:100CC0005C0000202C2900085C000020700200203D
:100CD000FEE7000038B50E4B05461A784FF47A73DC
:100CE000B3FBF2F30B4A1068B0FBF3F000F09CF892
:100CF000044658B90F2D09D8024629464FF0FF3057
:100D000000F054F82046044B1D6038BD0120FCE77C
:100D1000040000200000002008000020074A08B559
:100D20001368032043F01003136000F02DF80F2028
:100D3000FFF7D0FFFFF7E4FE002008BD00200240CF
:100D4000034A044B11681B780B441360704700BFC3
:100D50002401002004000020014B1868704700BFE8
:100D60002401002038B50446FFF7F6FF0546631C52
:100D70001EBF044B1B78E418FFF7EEFF431BA34292
:100D8000FAD338BD0400002007490302CA6803F4FF
:100D9000E06322F4E0621204120C134343F0BF63D9
:100DA00043F40033CB60704700ED00E0154B30B5E5
:100DB000DC68C4F30224C4F10703251D042B28BFFB
:100DC0000423062D4FF0FF3594BF0024033C05FAA1
:100DD00003F321EA0303A54022EA0502A340002809
:100DE00043EA0203ACBF00F16040074A4FEA031335
:100DF000DBB2ABBF00F5614000F00F0080F80033BC
:100E0000135430BD00ED00E014ED00E0002807DBD6
:100E100001234109034A00F01F00834042F82130BA
:100E2000704700BF00E100E00138B0F1807F0BD2D5
:100E30004FF0E023F021054A586182F8231000208A
:100E4000072298611A6170470120704700ED00E0A9
:100E50002DE9F74F00242646DFF888C1624BDFF802
:100E60008CE1DFF88C810A6832FA06F502D103B012
:100E7000BDE8F08F0127B74002EA070537EA020212
:100E80007AD14A68032A07D8013A022A00F28380FD
:100E9000DFE802F092979D00122A00F095806DD84D
:100EA000112A00F08B80FF2D98BF81464FF00F0B69
:100EB00088BF00F104094FEA8602D9F8007088BFA4
:100EC000203A0BFA02FA27EA0A0704FA02F2174359
:100ED000C9F80070D1F8049019F0805F4CD0DCF8AC
:100EE000182026F0030742F00102CCF81820DCF8A5
:100EF000182007F1804702F00102019207F58037C0
:100F000006F0030A019A4FEA8A0ABA680BFA0AFB4A
:100F100022EA0B0B374A90425DD002F58062904284
:100F20005BD002F58062904259D002F58062904217
:100F300014BF0422032202FA0AF242EA0B02BA6048
:100F40009A6819F4801F14BF2A43AA439A60DA688A
:100F500019F4001F14BF2A43AA43DA605A6819F42F
:100F6000003F14BF2A43AA435A601A6819F4803F0D
:100F700014BF2A43AA431A60013674E7DFF8789059
:100F80004A4508D010D8A9F580194A4503D07245C2
:100F900001D0424587D18A68DAB1012A4FF00804AE
:100FA0000CBF076147617EE7DFF850904A45F2D0F9
:100FB00009F580394A45EDE7CC6874E7CC6804341C
:100FC00071E7CC6808346EE7CC680C346BE700241A
:100FD00069E7042467E70022ADE70122ABE70222BC
:100FE000A9E700BF001002400004014000002110EA
:100FF0000000111000080140000022100000311014
:101000008368194214BF0120002070470AB10161B2
:1010100070470904FBE7016800224B6913F4806301
:1010200010D06FF480634B612023026380F83D3061
:1010300080F83E20036C80F83C2043F004030364F6
:1010400001207047184670472DE9F84606460F46BE
:1010500091461D464FEA114A3368BAF1010F0CBFA1
:101060005C699C6927EA0404A4B2B4FA84F46409B4
:10107000A14501D0002025E06A1CEED0FFF76CFEF0
:10108000089BC01AA84201D8002DE5D13368BAF1F7
:10109000010F0CBF5B699B6927EA03039BB2B3FA9C
:1010A00083F35B099945D7D10023202201203363C4
:1010B00086F83D2086F83E30326C86F83C3042F0AF
:1010C00020023264BDE8F8862DE9F04104460F465F
:1010D000164698462568686927EA000080B2C0B1C4
:1010E0006B695A0517D52B68202243F400732B60D7
:1010F0006FF480636B610023236384F83D2084F8E0
:101100003E30236C43F0040323640023012084F861
:101110003C30BDE8F081731CDDD0FFF71DFEA0EB75
:101120000800B04201D8002ED4D123685A6927EABA
:10113000020292B2002ACDD000232022236384F839
:101140003D2084F83E30236C1343DDE770B5044640
:101150000D46164623685B691B0601D500201EE07C
:101160002046FFF758FFC8B96A1CF3D0FFF7F4FD1B
:10117000801BA84201D8002DECD123685B6913F0D5
:101180008003E7D12022236384F83D2084F83E3099
:10119000226C84F83C3042F020022264012070BDB1
:1011A00070B504460D46164623685B695B0701D59A
:1011B00000201EE02046FFF72EFFC8B96A1CF3D0BE
:1011C000FFF7CAFD801BA84201D8002DECD123688F
:1011D0005B6913F00403E7D12022236384F83D20E8
:1011E00084F83E30226C84F83C3042F020022264C5
:1011F000012070BD70B5044608B9012070BD90F89B
:101200003D3003F0FF021BB980F83C20FFF79AFC49
:10121000242384F83D3023681A6822F001021A6002
:101220001A6842F400421A601A6822F400421A60F6
:1012300000F0C0FB3F4B65689D4294BF3E4B3F4B67
:1012400098428CBF00230123002BD6D1394E3C4B52
:10125000B542B0FBF3F388BF4FF49676226851682D
:1012600021F03F0141EA030182BF73434FF47A76D4
:10127000B3FBF6F35160116A013321F03F010B43D8
:101280001362D169431E2B4821F44F41854221F05E
:10129000FF0132D86D00B3FBF5F340F6FC7001336B
:1012A000034242D0C3F30B031943D1611168D4E95F
:1012B000073021F0C00103430B4313609168D4E968
:1012C000030321F40341034321F0FF010B43936027
:1012D000D168D4E9053021F0FF0103430B43D3600B
:1012E0001368002043F0010313602023206484F876
:1012F0003D30206384F83E0080E7A06850B905EBDC
:101300004505B3FBF5F30133C3F30B037BB143F4A2
:101310000043C9E719206843B3FBF0F30133C3F37B
:101320000B0323B143F44043BEE70423BCE701238E
:10133000BAE700BFA08601007F841E00FF083D00C1
:1013400040420F002DE9F043044685B098460D4613
:1013500091460C9FFFF700FD94F83D300646202B88
:1013600004D00225284605B0BDE8F083009019237B
:10137000012220465C49FFF767FE0028F1D194F86E
:101380003C30012BEDD00123216884F83C300B6800
:10139000DA075EBF0B6843F001030B600B6823F4B0
:1013A00000630B60212384F83D30102384F83E3025
:1013B00000232364A4F82A80638DC4F82490238535
:1013C0004A4BE362E36A082B04D0012B02D013F5E9
:1013D000803F04D10B6843F480730B6002E0236B01
:1013E000122BF7D000223B464FF001112046009609
:1013F000FFF72AFE226840B11368DB0501D40125FE
:10140000B0E74FF400732364F9E72369B3F5804F25
:1014100021D105F0FE05156133463A462046344990
:10142000FFF752FE05460028E9D1236803905A6968
:1014300003929B690393039B238DF3B921680A6888
:1014400042F400720A60202284F83C3084F83D2087
:1014500084F83E3086E7EB1103F0060343F0F00317
:101460001361204633463A462249FFF72DFE0028F5
:10147000C5D12368EDB21D61CEE73246394620461C
:10148000FFF764FE40B1236C042BB8D122681368C7
:1014900043F400731360B2E7636A20681A4612F8D7
:1014A000011B01616262628D013A92B26285228DF6
:1014B000D0F814C0511E89B21CF0040F21850AD047
:1014C00049B15978023301616362638D023A013B8D
:1014D0009BB263852285324639462046FFF760FE7F
:1014E0000028A9D0CFE700BF020010000000FFFFD6
:1014F00002000100080001002DE9F341054638B360
:101500000368DB0710D42B689F075ED42B6819078C
:1015100000F195802B685A0700F1C180EB69002B20
:1015200040F02C81002029E0904C636803F00C030C
:10153000042B07D0636803F00C03082B0AD16368FF
:10154000DE0307D523689C03DDD56B68002BDAD159
:10155000012013E06B68B3F5803F12D1236843F498
:1015600080332360FFF7F8FB064623689803CAD44C
:10157000FFF7F2FB801B6428F7D9032002B0BDE817
:10158000F0819BB9236823F480332360236823F41C
:1015900080232360FFF7E0FB064623689903B2D55A
:1015A000FFF7DAFB801B6428F7D9E6E7B3F5A02F35
:1015B000236803D143F480232360CFE723F48033EF
:1015C0002360236823F48023CBE7684C636813F01F
:1015D0000C0F07D0636803F00C03082B10D163686D
:1015E000DA030DD423689B0702D52B69012BAFD1F9
:1015F00023686A6923F0F80343EAC203236085E79E
:101600002A695B4B6AB101221A60FFF7A5FB064607
:1016100023689F07ECD4FFF79FFB801B0228F7D9B4
:10162000ABE71A60FFF798FB0646236898077FF53B
:101630006DAFFFF791FB801B0228F6D99DE7AA69E1
:101640004A4E4B4BE2B10122C3F88024FFF784FBE2
:101650000446736A9B070DD54FF4FA52454B1B683D
:10166000B3FBF2F3019300BF019B5A1E0192002BC2
:10167000F9D14FE7FFF770FB001B0228E9D97CE79F
:10168000C3F88024FFF768FB0446736A9F077FF561
:1016900041AFFFF761FB001B0228F6D96DE7334C21
:1016A000E369D80024D40127E36943F08053E36160
:1016B000E36903F080530093009B2F4E3368D905F4
:1016C00018D5EB68012B26D1236A43F0010323626E
:1016D000FFF742FB41F288380646236A9B073FD555
:1016E000002F3FF41BAFE36923F08053E36115E75C
:1016F0000027E2E7336843F480733360FFF72CFB85
:1017000080463368DA05DCD4FFF726FBA0EB08003F
:101710006428F6D931E7ABB9236A41F2883823F05F
:1017200001032362236A23F004032362FFF714FBFF
:101730000646236A9807D3D5FFF70EFB801B40456A
:10174000F7D91AE7052B236A03D143F00403236278
:10175000BAE723F001032362236A23F00403B6E708
:10176000FFF7FAFA801B4045B7D906E700100240A0
:101770000000424200000020007000402A4C6268D5
:1017800002F00C02082A3ED00022022B274B1A66D8
:101790002CD1FFF7E1FA06462368990120D42B6A81
:1017A000B3F5803F05D16268A96822F400320A438C
:1017B0006260696A62680B4322F474121343012267
:1017C00063601A4B1A66FFF7C7FA054623689A0149
:1017D0003FF5A8AEFFF7C0FA401B0228F6D9CCE6C9
:1017E000FFF7BAFA801B0228D6D9C6E6FFF7B4FA8B
:1017F000054623689B017FF595AEFFF7ADFA401BC8
:101800000228F6D9B9E6012B3FF4A2AE60682B6A34
:1018100000F480329A427FF49BAE6B6A00F4701041
:10182000C01A18BF0120A9E6001002400000424281
:101830000D4A536803F00C01082912D10B48C3F379
:101840008341DB03405C09D55368094AC3F3404335
:101850005043084AD35CB0FBF3F07047064B584343
:1018600070470348704700BF00100240E12800089D
:1018700000127A00DF28000800093D002DE9F04140
:101880000D46044610B90120BDE8F081444A1368B2
:1018900003F007038B4228D321688E0730D4CA0790
:1018A00043D43F4A136803F00703AB4265D822686C
:1018B0003C4D12F0040F6CD1130706D56B682269FA
:1018C00023F4605343EAC2036B60FFF7B1FF6B6818
:1018D000354AC3F30313D35CD840344B1860344B00
:1018E0001868FFF7F7F90020CEE7136823F0070325
:1018F0000B431360136803F007038B42C3D1CBE79C
:10190000284B11F0040F1EBF5A6842F4E0625A607F
:10191000080742BF5A6842F460525A605A68A06889
:1019200022F0F00202435A60B9E762681D4E012AB4
:1019300033681AD113F4003FA5D0736841F2883898
:1019400023F0030313437360FFF706FA0746736837
:10195000626803F00C03B3EB820FA2D0FFF7FCF92F
:10196000C01B4045F3D903208EE7022A02D113F0B1
:10197000007FE1E713F0020FDEE7136823F00703AF
:101980002B431360136803F00703AB427FF47BAF74
:101990008DE76B68E16823F4E0630B436B608BE7D2
:1019A0000020024000100240CF2800080000002064
:1019B00008000020044B054A5B68C3F30223D35C94
:1019C000034A1068D840704700100240C72800083A
:1019D0000000002090F83D30012B20D1022380F838
:1019E0003D300368DA6842F00102DA600D4A934242
:1019F0000AD0B3F1804F07D0A2F59432934203D0BE
:101A000002F58062934204D19A6802F00702062A26
:101A100003D01A6842F001021A60002070470120CA
:101A2000704700BF002C0140082910D004D841B1F4
:101A3000042909D0002070470C29FBD10368186CD9
:101A400070470368586B70470368986B704703686A
:101A5000D86B70477047704770477047036870B520
:101A6000DD681E690446B1070DD5AA070BD56FF0D6
:101A700002021A61012202779B699B0769D0FEF777
:101A8000FBFE00232377710710D56A070ED56FF090
:101A90000402236820461A61022222779B6913F40C
:101AA000407F5CD0FEF7E8FE0023237733070FD595
:101AB00028070DD56FF00802236820461A6104221A
:101AC0002277DB69990750D0FEF7D6FE00232377F3
:101AD000F20610D5EB060ED56FF0100223682046F3
:101AE0001A6108222277DB6913F4407F43D0FEF7A6
:101AF000C3FE00232377F00708D5E90706D56FF06A
:101B00000102236820461A61FFF7A4FF320608D5B8
:101B10002B0606D56FF08002236820461A6100F07C
:101B200008FA700608D5690606D56FF040022368EA
:101B300020461A61FFF791FFB20622D5AB0620D5E9
:101B40006FF0200223682046BDE870401A6100F063
:101B5000EFB9FFF780FF2046FFF77EFF91E7FFF721
:101B60007AFF2046FFF778FF9EE7FFF774FF2046D5
:101B7000FFF772FFAAE7FFF76EFF2046FFF76CFF43
:101B8000B7E770BD1E4A036890420AD0B0F1804F9B
:101B900007D0A2F59432904203D002F580629042C1
:101BA00015D14A6823F070031343154A90420AD0B6
:101BB000B0F1804F07D0A2F59432904203D002F5E5
:101BC0008062904203D1CA6823F4407313434A6988
:101BD00023F08003134303608B68C3620B68836246
:101BE000074B984204BF0B690363012343610369F8
:101BF000DB0742BF036923F001030361704700BFA5
:101C0000002C014010B5044630B390F83D3003F08D
:101C1000FF021BB980F83C20FEF7C6FF02232068B4
:101C200084F83D30211DFFF7ADFF0123002084F82B
:101C3000463084F83E3084F83F3084F8403084F8F1
:101C4000413084F8423084F8433084F8443084F8DA
:101C5000453084F83D3010BD0120FCE770B5056AC1
:101C6000046A124E24F001040462B042846919D05F
:101C7000B0F1804F16D0A6F59436B04212D006F5DA
:101C80008066B0420ED044F001021B0122F0F00247
:101C9000DBB2134301F00A0125F00A02114383610C
:101CA000016270BD24F003042243EEE7002C0140E2
:101CB000F8B590F83C300546012B0C4600F08880C2
:101CC000012085F83C008AB92868CB6806C9FFF76F
:101CD000C5FF8369A26823F00C0383618369134302
:101CE00083610020002385F83C30F8BD042A24D10C
:101CF000D1E900272B68C9681E6A186A090320F019
:101D000010001862986989B220F4407040EA0720F8
:101D100020F470401201014302F0A00226F0A0005E
:101D2000024399611A629A69A16822F440629A6139
:101D30009A6942EA01229A61D3E7082A22D1D1E9BD
:101D400000202B68C9681E6A1F6A090127F4807782
:101D50001F62DF69C9B227F00307384320F0F000A3
:101D60001202014302F4007226F400700243D961AA
:101D70001A62DA69A16822F00C02DA61DA690A43B0
:101D8000DA61AEE70C2AADD1D1E900272B68C9682A
:101D90001E6A186A090320F480501862D86989B253
:101DA00020F4407040EA072020F470401203014301
:101DB00002F4005226F400500243D9611A62DA6933
:101DC000A16822F44062DA61DA6942EA0122D7E7C7
:101DD00002208AE710B50124036A01F01F018C403C
:101DE00023EA04030362036A8A401A43026210BDB5
:101DF00008B571BB90F83E2090F84230D2B2012A6B
:101E0000DBB262D1012B60D10223002937D10268F5
:101E100080F83E3080F84230D36843F00203D3604C
:101E200000680122FFF7D6FF294B98420AD0B0F193
:101E3000804F07D0A3F59433984203D003F5806315
:101E400098423DD1836803F00703062B38D1002068
:101E500008BD042905D190F83F2090F84330D2B254
:101E6000CDE708290BBF90F8402090F8412090F86A
:101E7000443090F845300CBFD2B2D2B2BFE704294B
:101E800008D1026880F83F3080F84330D36843F0CF
:101E90000403C4E7082908D1026880F8403080F8BC
:101EA0004430D36843F00803B9E70C2980F8413087
:101EB00080F8453009D10268D36843F01003AEE7DB
:101EC000036843F001030360C1E70120C0E700BFDE
:101ED000002C014030B590F83C300246012B4FF009
:101EE000020022D0136882F83D005C680D6824F07F
:101EF00070042C4398685C600C4CA3420AD0B3F188
:101F0000804F07D0A4F59434A34203D004F5806435
:101F1000A34204D1496820F0800001439960012365
:101F2000002082F83D3082F83C0030BD002C01409A
:101F3000704770470EB46FF0004100B59CB01DAB08
:101F400002900690079104910848094953F8042B20
:101F50000591006802A9019300F092F90022029B0A
:101F60001A701CB05DF804EB03B070470C00002041
:101F70000802FFFF03460244934200D1704703F872
:101F8000011BF9E7014B1868704700BF0C000020E7
:101F900070B500260C4D0D4C641BA410A64209D14F
:101FA00000F078FC00260A4D0A4C641BA410A642DF
:101FB00005D170BD55F8043B98470136EEE755F85A
:101FC000043B98470136F2E7242900082429000839
:101FD00024290008282900087047704738B50546AD
:101FE000002940D051F8043C0C1F002BB8BFE41866
:101FF00000F0DEF81C4A136833B9636014602846A9
:10200000BDE8384000F0DAB8A34208D920682118AA
:102010008B4201BF19685B6809182160EDE71A4619
:102020005B680BB1A342FAD911685018A0420BD1DA
:1020300020680144501883421160E0D118685B6841
:10204000084410605360DAE702D90C232B60D6E70E
:10205000206821188B4201BF19685B68091821604C
:1020600063605460CBE738BD6C02002070B50F4E42
:102070000C463168054611B900F0AAFB30602146D4
:10208000284600F0A5FB431C03D14FF0FF34204647
:1020900070BDC41C24F00304A042F8D0211A2846C5
:1020A00000F096FB0130F2D1EFE700BF680200209C
:1020B0002DE9F843CD1C25F0030508350C2D38BF5C
:1020C0000C25002D064601DBA94204D90C23336000
:1020D0000020BDE8F883DFF8D48000F069F8D8F874
:1020E00000301C4644BB29463046FFF7BFFF431C67
:1020F000044658D1D8F800402746002F43D1002C81
:102100004BD023683946304604EB030900F060FBEE
:10211000814542D1216830466D1A2946FFF7A6FF56
:1021200001303AD023682B442360D8F800305A6835
:1021300062BBC8F800700FE02268521B20D40B2A43
:1021400017D96119A342256018BF5960636808BF99
:10215000C8F8001062514B60304600F02FF804F1CF
:102160000B00231D20F00700C21A1CBF1B1AA3502E
:10217000AFE76268A3420CBFC8F800205A60EBE7E3
:1021800023466468AEE73C467F68B6E71A465B685C
:10219000A342FBD100235360DEE70C2330463360BB
:1021A00000F00CF894E70560D6E700BF6C02002051
:1021B0000148FFF711BF00BF640200200148FFF78C
:1021C0000CBF00BF640200202DE9F0471F468E6857
:1021D0008246BE420C4690460B682DD8B1F90C20C1
:1021E00012F4906F26D06569096905EB4505A3EBEC
:1021F000010905EBD5757B1C4B446D109D4238BF22
:102200001D46530527D52946FFF752FF064660B302
:102210004A46216900F0FAFAA38923F4906343F057
:102220008003A38126614E4426603E466561A5EB8E
:102230000905A560BE4200D93E46324641462068A7
:1022400000F0ACFA0020A3689B1BA3602368334412
:102250002360BDE8F0872A4600F0E6FA064600282B
:10226000E0D150462169FFF7B9FE0C23CAF80030CF
:10227000A3894FF0FF3043F04003A381E9E700005A
:102280002DE9F04F98468B8907461B060D461446EC
:102290009DB010D50B6973B94021FFF709FF286085
:1022A000286130B90C233B604FF0FF301DB0BDE812
:1022B000F08F40236B610023099320238DF8293090
:1022C00030234FF00109CDF80C80DFF898818DF8AC
:1022D0002A3023469A4613F8012B0AB1252AF9D150
:1022E000BAEB040B0BD05B46224629463846FFF773
:1022F0006BFF013000F0A780099A5A4409929AF8BE
:102300000030002B00F09F8000234FF0FF32CDE91A
:1023100005230AF1010A049307938DF853301A93A9
:102320005446052214F8011B4E4800F061FA049A45
:10233000D8B9D00644BF20238DF85330110744BFCD
:102340002B238DF853309AF800302A2B15D05446A1
:1023500000204FF00A0C079A214611F8013B303B50
:10236000092B4BD9B0B1079214E0A0EB080309FA8E
:1023700003F31343A2460493D2E7039B191D1B6882
:102380000391002BBBBF5B4242F00202079307930D
:10239000B8BF049223782E2B0AD163782A2B32D12E
:1023A000039B02341A1D1B68039243EAE3730593EF
:1023B000DFF8B4A003225046217800F019FA38B1B2
:1023C0004022049BA0EB0A00824013430134049393
:1023D00014F8011B062225488DF8281000F008FA91
:1023E000002836D0224B1BBB039B073323F0070387
:1023F00008330393099B334409936AE70C46012091
:102400000CFB0232A8E700234FF00A0C19460134F6
:102410000593204610F8012B303A092A03D9002BE6
:10242000C6D00591C4E7044601230CFB0121F0E767
:1024300003AB00932A4638460E4B04A9AFF3008045
:10244000421C0646D6D1AB895B063FF52DAF0998F5
:102450002CE703AB00932A463846064B04A900F04C
:102460007DF8EDE7F1280008F7280008FB280008B0
:1024700000000000C92100082DE9F04716469846E3
:102480008A680B6907469342B8BF1346336091F8D8
:1024900043200C46DDF820900AB1013333602368F5
:1024A000990642BF336802333360256815F006058C
:1024B00006D104F1190AE36832689B1AAB422BDC9F
:1024C00094F843302268003B18BF0123920630D4B1
:1024D0004146384604F14302C847013023D02368FF
:1024E000226903F00603042B14BF002533684FF064
:1024F000000608BFE56804F11A0408BFED1A54F895
:10250000123C08BF25EAE5759342C4BF9B1AED183B
:10251000B5421AD1002008E0012352464146384610
:10252000C847013003D14FF0FF30BDE8F0870135D7
:10253000C1E73020E11881F843005A1C94F8451097
:102540002244023382F84310C2E701232246414667
:102550003846C8470130E6D00136D9E72DE9FF47B4
:102560000F7E9146782F80460C469A460C9E01F1CC
:10257000430207D8622F0AD8002F00F0D380582FCB
:1025800000F0BA8004F1420684F842703AE0A7F104
:102590006303152BF6D801A151F823F0F5250008A7
:1025A00009260008852500088525000885250008DE
:1025B00085250008092600088525000885250008CE
:1025C00085250008852500080B270008332600080C
:1025D000C526000885250008852500082D27000848
:1025E0008525000833260008852500088525000874
:1025F000CD26000833681A1D1B68326004F14206BC
:1026000084F8423001239EE033682068191D316050
:10261000060601D51D6803E04506FBD5B3F9005059
:10262000002D03DA2D236D4284F843300A235948E4
:1026300011E021683368080653F8045B02D44906A8
:1026400048BFADB26F2F336014BF0A23082351482F
:10265000002184F843106668002EA8BF2168A66098
:10266000A4BF21F0040121600DB9002E4BD0164605
:10267000B5FBF3F103FB1157C75D06F8017D2F464B
:10268000BB420D46F4D9082B0BD12368DF0708D5D0
:10269000236961689942DEBF302306F8013C06F1E8
:1026A000FF36921B22614B4621464046CDF800A0E2
:1026B00003AAFFF7E1FE01304AD14FF0FF3004B02A
:1026C000BDE8F087236843F0200323607827324871
:1026D00084F84570236831681F0651F8045B02D402
:1026E0005F0648BFADB23160D90744BF43F0200355
:1026F00023601DB11023ABE72648E9E7236823F0E8
:1027000020032360F6E71646BDE733682568181DE9
:10271000616930602E061B6801D5196002E0680609
:10272000FBD51980002316462361BCE733680021DE
:102730001A1D32601E686268304600F059F808B110
:10274000801B606063682361002384F84330AAE73C
:102750003246494640462369D0470130ADD0236810
:102760009B0713D4E068039B9842B8BF1846A6E7BE
:102770000123324649464046D04701309DD00135BD
:10278000E36803995B1AAB42F2DCEBE7002504F146
:102790001906F5E70229000813290008884210B538
:1027A00001EB020402D98442234607D8431EA1420A
:1027B00008D011F8012B03F8012FF8E70146024475
:1027C0008A4200D110BD13F8014D02F8014DF7E720
:1027D00038B50023054D044608462B60FEF732FA53
:1027E000431C02D12B6803B1236038BD6002002076
:1027F000034610B5C9B202449342184601D10020E5
:1028000003E0047801338C42F6D110BD0A449142B2
:1028100000F1FF3300D1704710B511F8014B914220
:1028200003F8014FF9D110BD2DE9F041804615465E
:102830000C4621B91146BDE8F041FFF739BC2AB971
:10284000FFF7CCFB00242046BDE8F08100F01AF829
:102850008542064602D8B5EB500FF4D829464046CB
:10286000FFF726FC07460028ECD0B5422A46214651
:1028700028BF3246FFF7CAFF21464046FFF7AEFBAE
:102880003C46E0E751F8043C181F002BBCBF0B5836
:10289000C0187047F8B500BFF8BC08BC9E4670472A
:0C28A000F8B500BFF8BC08BC9E467047AD
:1028AC0074657374206C63640044697374616E6343
:1028BC00653A0025336C6420636D00000000000154
:1028CC0002030400000000000000000102030406E3
:1028DC00070809010202030405060708090A0B0C84
:1028EC000D0E0F1010232D302B2000686C4C006542
:1028FC006667454647003031323334353637383920
:10290C004142434445460030313233343536373852
:08291C00396162636465660025
:042924003501000871
:042928001101000891
:10292C0000127A00010000001000000010000020CE
:10293C00000000002801002090010020F801002078
:10294C00000000000000000000000000000000007B
:10295C00000000000000000000000000000000006B
:10296C00000000000000000000000000000000005B
:0C297C000000000000000000000000004F
:0400000508000C895A
:00000001FF
